{
  "_format": "hh-sol-artifact-1",
  "contractName": "StarTickets",
  "sourceName": "contracts/starTickets.sol",
  "abi": [
    {
      "inputs": [],
      "name": "InvalidInitialization",
      "type": "error"
    },
    {
      "inputs": [],
      "name": "NotInitializing",
      "type": "error"
    },
    {
      "inputs": [
        {
          "internalType": "address",
          "name": "owner",
          "type": "address"
        }
      ],
      "name": "OwnableInvalidOwner",
      "type": "error"
    },
    {
      "inputs": [
        {
          "internalType": "address",
          "name": "account",
          "type": "address"
        }
      ],
      "name": "OwnableUnauthorizedAccount",
      "type": "error"
    },
    {
      "inputs": [],
      "name": "ReentrancyGuardReentrantCall",
      "type": "error"
    },
    {
      "anonymous": false,
      "inputs": [
        {
          "indexed": true,
          "internalType": "address",
          "name": "owner",
          "type": "address"
        },
        {
          "indexed": false,
          "internalType": "uint256",
          "name": "amount",
          "type": "uint256"
        }
      ],
      "name": "AvaxWithdrawn",
      "type": "event"
    },
    {
      "anonymous": false,
      "inputs": [
        {
          "indexed": true,
          "internalType": "address",
          "name": "owner",
          "type": "address"
        },
        {
          "indexed": true,
          "internalType": "address",
          "name": "tokenAddress",
          "type": "address"
        },
        {
          "indexed": false,
          "internalType": "uint256",
          "name": "amount",
          "type": "uint256"
        }
      ],
      "name": "ERC20Withdrawn",
      "type": "event"
    },
    {
      "anonymous": false,
      "inputs": [
        {
          "indexed": false,
          "internalType": "uint64",
          "name": "version",
          "type": "uint64"
        }
      ],
      "name": "Initialized",
      "type": "event"
    },
    {
      "anonymous": false,
      "inputs": [
        {
          "indexed": true,
          "internalType": "address",
          "name": "previousOwner",
          "type": "address"
        },
        {
          "indexed": true,
          "internalType": "address",
          "name": "newOwner",
          "type": "address"
        }
      ],
      "name": "OwnershipTransferred",
      "type": "event"
    },
    {
      "anonymous": false,
      "inputs": [
        {
          "indexed": true,
          "internalType": "address",
          "name": "oldReferrer",
          "type": "address"
        },
        {
          "indexed": true,
          "internalType": "address",
          "name": "newReferrer",
          "type": "address"
        }
      ],
      "name": "ReferrerChanged",
      "type": "event"
    },
    {
      "anonymous": false,
      "inputs": [
        {
          "indexed": true,
          "internalType": "address",
          "name": "buyer",
          "type": "address"
        },
        {
          "indexed": true,
          "internalType": "address",
          "name": "subject",
          "type": "address"
        },
        {
          "indexed": false,
          "internalType": "uint256",
          "name": "amount",
          "type": "uint256"
        },
        {
          "indexed": false,
          "internalType": "uint256",
          "name": "price",
          "type": "uint256"
        }
      ],
      "name": "TicketBought",
      "type": "event"
    },
    {
      "anonymous": false,
      "inputs": [
        {
          "indexed": true,
          "internalType": "address",
          "name": "seller",
          "type": "address"
        },
        {
          "indexed": true,
          "internalType": "address",
          "name": "subject",
          "type": "address"
        },
        {
          "indexed": false,
          "internalType": "uint256",
          "name": "amount",
          "type": "uint256"
        },
        {
          "indexed": false,
          "internalType": "uint256",
          "name": "price",
          "type": "uint256"
        }
      ],
      "name": "TicketSold",
      "type": "event"
    },
    {
      "inputs": [
        {
          "internalType": "address",
          "name": "subject",
          "type": "address"
        },
        {
          "internalType": "uint256",
          "name": "amount",
          "type": "uint256"
        }
      ],
      "name": "buyTicket",
      "outputs": [],
      "stateMutability": "payable",
      "type": "function"
    },
    {
      "inputs": [
        {
          "internalType": "address",
          "name": "_starsArenaAddress",
          "type": "address"
        },
        {
          "internalType": "address",
          "name": "_starRegistryAddress",
          "type": "address"
        },
        {
          "internalType": "address",
          "name": "_referrer",
          "type": "address"
        }
      ],
      "name": "initialize",
      "outputs": [],
      "stateMutability": "nonpayable",
      "type": "function"
    },
    {
      "inputs": [],
      "name": "owner",
      "outputs": [
        {
          "internalType": "address",
          "name": "",
          "type": "address"
        }
      ],
      "stateMutability": "view",
      "type": "function"
    },
    {
      "inputs": [],
      "name": "referral",
      "outputs": [
        {
          "internalType": "address",
          "name": "",
          "type": "address"
        }
      ],
      "stateMutability": "view",
      "type": "function"
    },
    {
      "inputs": [],
      "name": "renounceOwnership",
      "outputs": [],
      "stateMutability": "nonpayable",
      "type": "function"
    },
    {
      "inputs": [
        {
          "internalType": "address",
          "name": "subject",
          "type": "address"
        },
        {
          "internalType": "uint256",
          "name": "amount",
          "type": "uint256"
        }
      ],
      "name": "sellTicket",
      "outputs": [],
      "stateMutability": "nonpayable",
      "type": "function"
    },
    {
      "inputs": [
        {
          "internalType": "address",
          "name": "_newReferrer",
          "type": "address"
        }
      ],
      "name": "setReferrer",
      "outputs": [],
      "stateMutability": "nonpayable",
      "type": "function"
    },
    {
      "inputs": [],
      "name": "starRegistry",
      "outputs": [
        {
          "internalType": "contract IStarRegistry",
          "name": "",
          "type": "address"
        }
      ],
      "stateMutability": "view",
      "type": "function"
    },
    {
      "inputs": [],
      "name": "starsArena",
      "outputs": [
        {
          "internalType": "contract IStarsArena",
          "name": "",
          "type": "address"
        }
      ],
      "stateMutability": "view",
      "type": "function"
    },
    {
      "inputs": [
        {
          "internalType": "address",
          "name": "",
          "type": "address"
        }
      ],
      "name": "subjectToToken",
      "outputs": [
        {
          "internalType": "contract IERC20Burnable",
          "name": "",
          "type": "address"
        }
      ],
      "stateMutability": "view",
      "type": "function"
    },
    {
      "inputs": [
        {
          "internalType": "address",
          "name": "newOwner",
          "type": "address"
        }
      ],
      "name": "transferOwnership",
      "outputs": [],
      "stateMutability": "nonpayable",
      "type": "function"
    },
    {
      "inputs": [
        {
          "internalType": "address",
          "name": "_tokenAddress",
          "type": "address"
        }
      ],
      "name": "withdrawArbitraryERC20",
      "outputs": [],
      "stateMutability": "nonpayable",
      "type": "function"
    },
    {
      "inputs": [],
      "name": "withdrawAvax",
      "outputs": [],
      "stateMutability": "nonpayable",
      "type": "function"
    },
    {
      "stateMutability": "payable",
      "type": "receive"
    }
  ],
  "bytecode": "0x608060405234801561001057600080fd5b50613f7c806100206000396000f3fe608060405260043610620000eb5760003560e01c80638da5cb5b116200008b578063c0c53b8b1162000061578063c0c53b8b1462000266578063c99f4e3c1462000294578063edf622f514620002c4578063f2fde38b146200030857620000f3565b80638da5cb5b14620001ee578063a18a7bfc146200021e578063b4fad1b5146200024c57620000f3565b806366a5ef2f11620000c157806366a5ef2f1462000184578063715018a614620001a45780637158c89314620001be57620000f3565b80631441a5a914620000f857806319d6793b14620001285780633d860117146200015657620000f3565b36620000f357005b600080fd5b3480156200010557600080fd5b506200011062000336565b6040516200011f9190620018f1565b60405180910390f35b3480156200013557600080fd5b506200015460048036038101906200014e919062001953565b6200035c565b005b3480156200016357600080fd5b506200018260048036038101906200017c9190620019c0565b62000536565b005b620001a260048036038101906200019c9190620019c0565b620008be565b005b348015620001b157600080fd5b50620001bc62000ef2565b005b348015620001cb57600080fd5b50620001d662000f0a565b604051620001e5919062001a72565b60405180910390f35b348015620001fb57600080fd5b506200020662000f30565b604051620002159190620018f1565b60405180910390f35b3480156200022b57600080fd5b506200024a600480360381019062000244919062001953565b62000f6a565b005b3480156200025957600080fd5b5062000264620010ac565b005b3480156200027357600080fd5b506200029260048036038101906200028c919062001a8f565b620011ae565b005b348015620002a157600080fd5b50620002ac62001417565b604051620002bb919062001b10565b60405180910390f35b348015620002d157600080fd5b50620002f06004803603810190620002ea919062001953565b6200143b565b604051620002ff919062001b52565b60405180910390f35b3480156200031557600080fd5b506200033460048036038101906200032e919062001953565b6200146e565b005b600260009054906101000a900473ffffffffffffffffffffffffffffffffffffffff1681565b62000366620014fb565b600081905060008173ffffffffffffffffffffffffffffffffffffffff166370a08231306040518263ffffffff1660e01b8152600401620003a89190620018f1565b602060405180830381865afa158015620003c6573d6000803e3d6000fd5b505050506040513d601f19601f82011682018060405250810190620003ec919062001b86565b90506000811162000434576040517f08c379a00000000000000000000000000000000000000000000000000000000081526004016200042b9062001c19565b60405180910390fd5b8173ffffffffffffffffffffffffffffffffffffffff1663a9059cbb6200045a62000f30565b836040518363ffffffff1660e01b81526004016200047a92919062001c4c565b6020604051808303816000875af11580156200049a573d6000803e3d6000fd5b505050506040513d601f19601f82011682018060405250810190620004c0919062001cb6565b508273ffffffffffffffffffffffffffffffffffffffff16620004e262000f30565b73ffffffffffffffffffffffffffffffffffffffff167fbfed55bdcd242e3dd0f60ddd7d1e87c67f61c34cd9527b3e6455d841b10253628360405162000529919062001ce8565b60405180910390a3505050565b620005406200158b565b6000600360008473ffffffffffffffffffffffffffffffffffffffff1673ffffffffffffffffffffffffffffffffffffffff16815260200190815260200160002060009054906101000a900473ffffffffffffffffffffffffffffffffffffffff169050600073ffffffffffffffffffffffffffffffffffffffff168173ffffffffffffffffffffffffffffffffffffffff160362000616576040517f08c379a00000000000000000000000000000000000000000000000000000000081526004016200060d9062001d55565b60405180910390fd5b6000670de0b6b3a7640000836200062e919062001da6565b90508173ffffffffffffffffffffffffffffffffffffffff166379cc679033836040518363ffffffff1660e01b81526004016200066d92919062001c4c565b600060405180830381600087803b1580156200068857600080fd5b505af11580156200069d573d6000803e3d6000fd5b5050505060008060009054906101000a900473ffffffffffffffffffffffffffffffffffffffff1673ffffffffffffffffffffffffffffffffffffffff16632267a89c86866040518363ffffffff1660e01b81526004016200070192919062001c4c565b602060405180830381865afa1580156200071f573d6000803e3d6000fd5b505050506040513d601f19601f8201168201806040525081019062000745919062001b86565b905060008054906101000a900473ffffffffffffffffffffffffffffffffffffffff1673ffffffffffffffffffffffffffffffffffffffff1663aac35d878686600260009054906101000a900473ffffffffffffffffffffffffffffffffffffffff166040518463ffffffff1660e01b8152600401620007c89392919062001df1565b600060405180830381600087803b158015620007e357600080fd5b505af1158015620007f8573d6000803e3d6000fd5b505050503373ffffffffffffffffffffffffffffffffffffffff166108fc829081150290604051600060405180830381858888f1935050505015801562000843573d6000803e3d6000fd5b508473ffffffffffffffffffffffffffffffffffffffff163373ffffffffffffffffffffffffffffffffffffffff167f5f784331eba7d7fbb7d2659ae923e07363352c554c99b3152b4de5e7a3efba588684604051620008a592919062001e2e565b60405180910390a3505050620008ba620015e5565b5050565b620008c86200158b565b803410156200090e576040517f08c379a0000000000000000000000000000000000000000000000000000000008152600401620009059062001eab565b60405180910390fd5b60008060009054906101000a900473ffffffffffffffffffffffffffffffffffffffff1673ffffffffffffffffffffffffffffffffffffffff16630f026f6d84846040518363ffffffff1660e01b81526004016200096e92919062001c4c565b602060405180830381865afa1580156200098c573d6000803e3d6000fd5b505050506040513d601f19601f82011682018060405250810190620009b2919062001b86565b905080341015620009fa576040517f08c379a0000000000000000000000000000000000000000000000000000000008152600401620009f19062001f43565b60405180910390fd5b6000670de0b6b3a76400008362000a12919062001da6565b905060008054906101000a900473ffffffffffffffffffffffffffffffffffffffff1673ffffffffffffffffffffffffffffffffffffffff1663e9ccf3a3838686600260009054906101000a900473ffffffffffffffffffffffffffffffffffffffff166040518563ffffffff1660e01b815260040162000a969392919062001df1565b6000604051808303818588803b15801562000ab057600080fd5b505af115801562000ac5573d6000803e3d6000fd5b50505050506000823462000ada919062001f65565b9050600081111562000b2f573373ffffffffffffffffffffffffffffffffffffffff166108fc829081150290604051600060405180830381858888f1935050505015801562000b2d573d6000803e3d6000fd5b505b6000600360008773ffffffffffffffffffffffffffffffffffffffff1673ffffffffffffffffffffffffffffffffffffffff16815260200190815260200160002060009054906101000a900473ffffffffffffffffffffffffffffffffffffffff169050600073ffffffffffffffffffffffffffffffffffffffff168173ffffffffffffffffffffffffffffffffffffffff160362000e06576000600160009054906101000a900473ffffffffffffffffffffffffffffffffffffffff1673ffffffffffffffffffffffffffffffffffffffff166376d4e674886040518263ffffffff1660e01b815260040162000c279190620018f1565b600060405180830381865afa15801562000c45573d6000803e3d6000fd5b505050506040513d6000823e3d601f19601f8201168201806040525081019062000c7091906200211f565b905060608060008351111562000cce578260405160200162000c9391906200220d565b60405160208183030381529060405291508260405160200162000cb7919062002283565b604051602081830303815290604052905062000d3f565b6040518060400160405280600b81526020017f53746172205469636b657400000000000000000000000000000000000000000081525091506040518060400160405280600381526020017f544b54000000000000000000000000000000000000000000000000000000000081525090505b600082823060405162000d52906200189e565b62000d6093929190620022ea565b604051809103906000f08015801562000d7d573d6000803e3d6000fd5b50905080600360008c73ffffffffffffffffffffffffffffffffffffffff1673ffffffffffffffffffffffffffffffffffffffff16815260200190815260200160002060006101000a81548173ffffffffffffffffffffffffffffffffffffffff021916908373ffffffffffffffffffffffffffffffffffffffff160217905550809450505050505b8073ffffffffffffffffffffffffffffffffffffffff166340c10f1933856040518363ffffffff1660e01b815260040162000e4392919062001c4c565b600060405180830381600087803b15801562000e5e57600080fd5b505af115801562000e73573d6000803e3d6000fd5b505050508573ffffffffffffffffffffffffffffffffffffffff163373ffffffffffffffffffffffffffffffffffffffff167f78cbb09c0a5c03b94a37baf97d04dbbdb4e2ff62148f3255ebb24211c47d1c81878760405162000ed892919062001e2e565b60405180910390a35050505062000eee620015e5565b5050565b62000efc620014fb565b62000f08600062001600565b565b600160009054906101000a900473ffffffffffffffffffffffffffffffffffffffff1681565b60008062000f3d620016d9565b90508060000160009054906101000a900473ffffffffffffffffffffffffffffffffffffffff1691505090565b62000f74620014fb565b600073ffffffffffffffffffffffffffffffffffffffff168173ffffffffffffffffffffffffffffffffffffffff160362000fe6576040517f08c379a000000000000000000000000000000000000000000000000000000000815260040162000fdd90620023ab565b60405180910390fd5b6000600260009054906101000a900473ffffffffffffffffffffffffffffffffffffffff16905081600260006101000a81548173ffffffffffffffffffffffffffffffffffffffff021916908373ffffffffffffffffffffffffffffffffffffffff1602179055508173ffffffffffffffffffffffffffffffffffffffff168173ffffffffffffffffffffffffffffffffffffffff167f4e6064ef60905499136c7b525d26eb2391902bea33127bf500a03fbc89685b4a60405160405180910390a35050565b620010b6620014fb565b60004790506000811162001101576040517f08c379a0000000000000000000000000000000000000000000000000000000008152600401620010f8906200241d565b60405180910390fd5b6200110b62000f30565b73ffffffffffffffffffffffffffffffffffffffff166108fc829081150290604051600060405180830381858888f1935050505015801562001151573d6000803e3d6000fd5b506200115c62000f30565b73ffffffffffffffffffffffffffffffffffffffff167f9e803e6e0f30d5a29a21b85f17b6a0a2e181b5cad9c30bcd9e09240040d52cf482604051620011a3919062001ce8565b60405180910390a250565b6000620011ba62001701565b905060008160000160089054906101000a900460ff1615905060008260000160009054906101000a900467ffffffffffffffff1690506000808267ffffffffffffffff16148015620012095750825b9050600060018367ffffffffffffffff161480156200123f575060003073ffffffffffffffffffffffffffffffffffffffff163b145b9050811580156200124e575080155b1562001286576040517ff92ee8a900000000000000000000000000000000000000000000000000000000815260040160405180910390fd5b60018560000160006101000a81548167ffffffffffffffff021916908367ffffffffffffffff1602179055508315620012d75760018560000160086101000a81548160ff0219169083151502179055505b620012e23362001729565b620012ec62001741565b876000806101000a81548173ffffffffffffffffffffffffffffffffffffffff021916908373ffffffffffffffffffffffffffffffffffffffff16021790555086600160006101000a81548173ffffffffffffffffffffffffffffffffffffffff021916908373ffffffffffffffffffffffffffffffffffffffff16021790555085600260006101000a81548173ffffffffffffffffffffffffffffffffffffffff021916908373ffffffffffffffffffffffffffffffffffffffff16021790555083156200140d5760008560000160086101000a81548160ff0219169083151502179055507fc7f505b2f371ae2175ee4913f4499e1f2633a7b5936321eed1cdaeb6115181d2600160405162001404919062002496565b60405180910390a15b5050505050505050565b60008054906101000a900473ffffffffffffffffffffffffffffffffffffffff1681565b60036020528060005260406000206000915054906101000a900473ffffffffffffffffffffffffffffffffffffffff1681565b62001478620014fb565b600073ffffffffffffffffffffffffffffffffffffffff168173ffffffffffffffffffffffffffffffffffffffff1603620014ed5760006040517f1e4fbdf7000000000000000000000000000000000000000000000000000000008152600401620014e49190620018f1565b60405180910390fd5b620014f88162001600565b50565b6200150562001757565b73ffffffffffffffffffffffffffffffffffffffff166200152562000f30565b73ffffffffffffffffffffffffffffffffffffffff161462001589576200154b62001757565b6040517f118cdaa7000000000000000000000000000000000000000000000000000000008152600401620015809190620018f1565b60405180910390fd5b565b6000620015976200175f565b90506002816000015403620015d8576040517f3ee5aeb500000000000000000000000000000000000000000000000000000000815260040160405180910390fd5b6002816000018190555050565b6000620015f16200175f565b90506001816000018190555050565b60006200160c620016d9565b905060008160000160009054906101000a900473ffffffffffffffffffffffffffffffffffffffff169050828260000160006101000a81548173ffffffffffffffffffffffffffffffffffffffff021916908373ffffffffffffffffffffffffffffffffffffffff1602179055508273ffffffffffffffffffffffffffffffffffffffff168173ffffffffffffffffffffffffffffffffffffffff167f8be0079c531659141344cd1fd0a4f28419497f9722a3daafe3b4186f6b6457e060405160405180910390a3505050565b60007f9016d09d72d40fdae2fd8ceac6b6234c7706214fd39c1cd1e609a0528c199300905090565b60007ff0c57e16840df040f15088dc2f81fe391c3923bec73e23a9662efc9c229c6a00905090565b6200173362001787565b6200173e81620017ca565b50565b6200174b62001787565b6200175562001857565b565b600033905090565b60007f9b779b17422d0df92223018b32b4d1fa46e071723d6817e2486d003becc55f00905090565b620017916200187c565b620017c8576040517fd7e6bcf800000000000000000000000000000000000000000000000000000000815260040160405180910390fd5b565b620017d462001787565b600073ffffffffffffffffffffffffffffffffffffffff168173ffffffffffffffffffffffffffffffffffffffff1603620018495760006040517f1e4fbdf7000000000000000000000000000000000000000000000000000000008152600401620018409190620018f1565b60405180910390fd5b620018548162001600565b50565b6200186162001787565b60006200186d6200175f565b90506001816000018190555050565b60006200188862001701565b60000160089054906101000a900460ff16905090565b611a9380620024b483390190565b600073ffffffffffffffffffffffffffffffffffffffff82169050919050565b6000620018d982620018ac565b9050919050565b620018eb81620018cc565b82525050565b6000602082019050620019086000830184620018e0565b92915050565b6000604051905090565b600080fd5b600080fd5b6200192d81620018cc565b81146200193957600080fd5b50565b6000813590506200194d8162001922565b92915050565b6000602082840312156200196c576200196b62001918565b5b60006200197c848285016200193c565b91505092915050565b6000819050919050565b6200199a8162001985565b8114620019a657600080fd5b50565b600081359050620019ba816200198f565b92915050565b60008060408385031215620019da57620019d962001918565b5b6000620019ea858286016200193c565b9250506020620019fd85828601620019a9565b9150509250929050565b6000819050919050565b600062001a3262001a2c62001a2684620018ac565b62001a07565b620018ac565b9050919050565b600062001a468262001a11565b9050919050565b600062001a5a8262001a39565b9050919050565b62001a6c8162001a4d565b82525050565b600060208201905062001a89600083018462001a61565b92915050565b60008060006060848603121562001aab5762001aaa62001918565b5b600062001abb868287016200193c565b935050602062001ace868287016200193c565b925050604062001ae1868287016200193c565b9150509250925092565b600062001af88262001a39565b9050919050565b62001b0a8162001aeb565b82525050565b600060208201905062001b27600083018462001aff565b92915050565b600062001b3a8262001a39565b9050919050565b62001b4c8162001b2d565b82525050565b600060208201905062001b69600083018462001b41565b92915050565b60008151905062001b80816200198f565b92915050565b60006020828403121562001b9f5762001b9e62001918565b5b600062001baf8482850162001b6f565b91505092915050565b600082825260208201905092915050565b7f4e6f20746f6b656e7320746f2077697468647261770000000000000000000000600082015250565b600062001c0160158362001bb8565b915062001c0e8262001bc9565b602082019050919050565b6000602082019050818103600083015262001c348162001bf2565b9050919050565b62001c468162001985565b82525050565b600060408201905062001c636000830185620018e0565b62001c72602083018462001c3b565b9392505050565b60008115159050919050565b62001c908162001c79565b811462001c9c57600080fd5b50565b60008151905062001cb08162001c85565b92915050565b60006020828403121562001ccf5762001cce62001918565b5b600062001cdf8482850162001c9f565b91505092915050565b600060208201905062001cff600083018462001c3b565b92915050565b7f546f6b656e20666f72207375626a656374206e6f7420666f756e640000000000600082015250565b600062001d3d601b8362001bb8565b915062001d4a8262001d05565b602082019050919050565b6000602082019050818103600083015262001d708162001d2e565b9050919050565b7f4e487b7100000000000000000000000000000000000000000000000000000000600052601160045260246000fd5b600062001db38262001985565b915062001dc08362001985565b925082820262001dd08162001985565b9150828204841483151762001dea5762001de962001d77565b5b5092915050565b600060608201905062001e086000830186620018e0565b62001e17602083018562001c3b565b62001e266040830184620018e0565b949350505050565b600060408201905062001e45600083018562001c3b565b62001e54602083018462001c3b565b9392505050565b7f496e73756666696369656e742066756e64732073656e74000000000000000000600082015250565b600062001e9360178362001bb8565b915062001ea08262001e5b565b602082019050919050565b6000602082019050818103600083015262001ec68162001e84565b9050919050565b7f496e73756666696369656e742066756e647320666f72207469636b657420707260008201527f69636520696e636c7564696e6720666565000000000000000000000000000000602082015250565b600062001f2b60318362001bb8565b915062001f388262001ecd565b604082019050919050565b6000602082019050818103600083015262001f5e8162001f1c565b9050919050565b600062001f728262001985565b915062001f7f8362001985565b925082820390508181111562001f9a5762001f9962001d77565b5b92915050565b600080fd5b600080fd5b6000601f19601f8301169050919050565b7f4e487b7100000000000000000000000000000000000000000000000000000000600052604160045260246000fd5b62001ff58262001faa565b810181811067ffffffffffffffff8211171562002017576200201662001fbb565b5b80604052505050565b60006200202c6200190e565b90506200203a828262001fea565b919050565b600067ffffffffffffffff8211156200205d576200205c62001fbb565b5b620020688262001faa565b9050602081019050919050565b60005b838110156200209557808201518184015260208101905062002078565b60008484015250505050565b6000620020b8620020b2846200203f565b62002020565b905082815260208101848484011115620020d757620020d662001fa5565b5b620020e484828562002075565b509392505050565b600082601f83011262002104576200210362001fa0565b5b815162002116848260208601620020a1565b91505092915050565b60006020828403121562002138576200213762001918565b5b600082015167ffffffffffffffff8111156200215957620021586200191d565b5b6200216784828501620020ec565b91505092915050565b600081519050919050565b600081905092915050565b6000620021938262002170565b6200219f81856200217b565b9350620021b181856020860162002075565b80840191505092915050565b7f2053746172205469636b65740000000000000000000000000000000000000000600082015250565b6000620021f5600c836200217b565b91506200220282620021bd565b600c82019050919050565b60006200221b828462002186565b91506200222882620021e6565b915081905092915050565b7f544b540000000000000000000000000000000000000000000000000000000000600082015250565b60006200226b6003836200217b565b9150620022788262002233565b600382019050919050565b600062002291828462002186565b91506200229e826200225c565b915081905092915050565b6000620022b68262002170565b620022c2818562001bb8565b9350620022d481856020860162002075565b620022df8162001faa565b840191505092915050565b60006060820190508181036000830152620023068186620022a9565b905081810360208301526200231c8185620022a9565b90506200232d6040830184620018e0565b949350505050565b7f4e65772072656665727265722063616e6e6f7420626520746865207a65726f2060008201527f616464726573732e000000000000000000000000000000000000000000000000602082015250565b60006200239360288362001bb8565b9150620023a08262002335565b604082019050919050565b60006020820190508181036000830152620023c68162002384565b9050919050565b7f4e6f204156415820746f20776974686472617700000000000000000000000000600082015250565b60006200240560138362001bb8565b91506200241282620023cd565b602082019050919050565b600060208201905081810360008301526200243881620023f6565b9050919050565b6000819050919050565b600067ffffffffffffffff82169050919050565b60006200247e6200247862002472846200243f565b62001a07565b62002449565b9050919050565b62002490816200245d565b82525050565b6000602082019050620024ad600083018462002485565b9291505056fe60806040523480156200001157600080fd5b5060405162001a9338038062001a938339818101604052810190620000379190620003ae565b80838381600390816200004b919062000693565b5080600490816200005d919062000693565b505050600073ffffffffffffffffffffffffffffffffffffffff168173ffffffffffffffffffffffffffffffffffffffff1603620000d55760006040517f1e4fbdf7000000000000000000000000000000000000000000000000000000008152600401620000cc91906200078b565b60405180910390fd5b620000e681620000f060201b60201c565b50505050620007a8565b6000600560009054906101000a900473ffffffffffffffffffffffffffffffffffffffff16905081600560006101000a81548173ffffffffffffffffffffffffffffffffffffffff021916908373ffffffffffffffffffffffffffffffffffffffff1602179055508173ffffffffffffffffffffffffffffffffffffffff168173ffffffffffffffffffffffffffffffffffffffff167f8be0079c531659141344cd1fd0a4f28419497f9722a3daafe3b4186f6b6457e060405160405180910390a35050565b6000604051905090565b600080fd5b600080fd5b600080fd5b600080fd5b6000601f19601f8301169050919050565b7f4e487b7100000000000000000000000000000000000000000000000000000000600052604160045260246000fd5b6200021f82620001d4565b810181811067ffffffffffffffff82111715620002415762000240620001e5565b5b80604052505050565b600062000256620001b6565b905062000264828262000214565b919050565b600067ffffffffffffffff821115620002875762000286620001e5565b5b6200029282620001d4565b9050602081019050919050565b60005b83811015620002bf578082015181840152602081019050620002a2565b60008484015250505050565b6000620002e2620002dc8462000269565b6200024a565b905082815260208101848484011115620003015762000300620001cf565b5b6200030e8482856200029f565b509392505050565b600082601f8301126200032e576200032d620001ca565b5b815162000340848260208601620002cb565b91505092915050565b600073ffffffffffffffffffffffffffffffffffffffff82169050919050565b6000620003768262000349565b9050919050565b620003888162000369565b81146200039457600080fd5b50565b600081519050620003a8816200037d565b92915050565b600080600060608486031215620003ca57620003c9620001c0565b5b600084015167ffffffffffffffff811115620003eb57620003ea620001c5565b5b620003f98682870162000316565b935050602084015167ffffffffffffffff8111156200041d576200041c620001c5565b5b6200042b8682870162000316565b92505060406200043e8682870162000397565b9150509250925092565b600081519050919050565b7f4e487b7100000000000000000000000000000000000000000000000000000000600052602260045260246000fd5b600060028204905060018216806200049b57607f821691505b602082108103620004b157620004b062000453565b5b50919050565b60008190508160005260206000209050919050565b60006020601f8301049050919050565b600082821b905092915050565b6000600883026200051b7fffffffffffffffffffffffffffffffffffffffffffffffffffffffffffffffff82620004dc565b620005278683620004dc565b95508019841693508086168417925050509392505050565b6000819050919050565b6000819050919050565b6000620005746200056e62000568846200053f565b62000549565b6200053f565b9050919050565b6000819050919050565b620005908362000553565b620005a86200059f826200057b565b848454620004e9565b825550505050565b600090565b620005bf620005b0565b620005cc81848462000585565b505050565b5b81811015620005f457620005e8600082620005b5565b600181019050620005d2565b5050565b601f82111562000643576200060d81620004b7565b6200061884620004cc565b8101602085101562000628578190505b620006406200063785620004cc565b830182620005d1565b50505b505050565b600082821c905092915050565b6000620006686000198460080262000648565b1980831691505092915050565b600062000683838362000655565b9150826002028217905092915050565b6200069e8262000448565b67ffffffffffffffff811115620006ba57620006b9620001e5565b5b620006c6825462000482565b620006d3828285620005f8565b600060209050601f8311600181146200070b5760008415620006f6578287015190505b62000702858262000675565b86555062000772565b601f1984166200071b86620004b7565b60005b8281101562000745578489015182556001820191506020850194506020810190506200071e565b8683101562000765578489015162000761601f89168262000655565b8355505b6001600288020188555050505b505050505050565b620007858162000369565b82525050565b6000602082019050620007a260008301846200077a565b92915050565b6112db80620007b86000396000f3fe608060405234801561001057600080fd5b50600436106100f55760003560e01c806370a082311161009757806395d89b411161006657806395d89b4114610260578063a9059cbb1461027e578063dd62ed3e146102ae578063f2fde38b146102de576100f5565b806370a08231146101ec578063715018a61461021c57806379cc6790146102265780638da5cb5b14610242576100f5565b806323b872dd116100d357806323b872dd14610166578063313ce5671461019657806340c10f19146101b457806342966c68146101d0576100f5565b806306fdde03146100fa578063095ea7b31461011857806318160ddd14610148575b600080fd5b6101026102fa565b60405161010f9190610f02565b60405180910390f35b610132600480360381019061012d9190610fbd565b61038c565b60405161013f9190611018565b60405180910390f35b6101506103af565b60405161015d9190611042565b60405180910390f35b610180600480360381019061017b919061105d565b6103b9565b60405161018d9190611018565b60405180910390f35b61019e6103e8565b6040516101ab91906110cc565b60405180910390f35b6101ce60048036038101906101c99190610fbd565b6103f1565b005b6101ea60048036038101906101e591906110e7565b610407565b005b61020660048036038101906102019190611114565b61041b565b6040516102139190611042565b60405180910390f35b610224610463565b005b610240600480360381019061023b9190610fbd565b610477565b005b61024a610497565b6040516102579190611150565b60405180910390f35b6102686104c1565b6040516102759190610f02565b60405180910390f35b61029860048036038101906102939190610fbd565b610553565b6040516102a59190611018565b60405180910390f35b6102c860048036038101906102c3919061116b565b610576565b6040516102d59190611042565b60405180910390f35b6102f860048036038101906102f39190611114565b6105fd565b005b606060038054610309906111da565b80601f0160208091040260200160405190810160405280929190818152602001828054610335906111da565b80156103825780601f1061035757610100808354040283529160200191610382565b820191906000526020600020905b81548152906001019060200180831161036557829003601f168201915b5050505050905090565b600080610397610683565b90506103a481858561068b565b600191505092915050565b6000600254905090565b6000806103c4610683565b90506103d185828561069d565b6103dc858585610731565b60019150509392505050565b60006012905090565b6103f9610825565b61040382826108ac565b5050565b610418610412610683565b8261092e565b50565b60008060008373ffffffffffffffffffffffffffffffffffffffff1673ffffffffffffffffffffffffffffffffffffffff168152602001908152602001600020549050919050565b61046b610825565b61047560006109b0565b565b61048982610483610683565b8361069d565b610493828261092e565b5050565b6000600560009054906101000a900473ffffffffffffffffffffffffffffffffffffffff16905090565b6060600480546104d0906111da565b80601f01602080910402602001604051908101604052809291908181526020018280546104fc906111da565b80156105495780601f1061051e57610100808354040283529160200191610549565b820191906000526020600020905b81548152906001019060200180831161052c57829003601f168201915b5050505050905090565b60008061055e610683565b905061056b818585610731565b600191505092915050565b6000600160008473ffffffffffffffffffffffffffffffffffffffff1673ffffffffffffffffffffffffffffffffffffffff16815260200190815260200160002060008373ffffffffffffffffffffffffffffffffffffffff1673ffffffffffffffffffffffffffffffffffffffff16815260200190815260200160002054905092915050565b610605610825565b600073ffffffffffffffffffffffffffffffffffffffff168173ffffffffffffffffffffffffffffffffffffffff16036106775760006040517f1e4fbdf700000000000000000000000000000000000000000000000000000000815260040161066e9190611150565b60405180910390fd5b610680816109b0565b50565b600033905090565b6106988383836001610a76565b505050565b60006106a98484610576565b90507fffffffffffffffffffffffffffffffffffffffffffffffffffffffffffffffff811461072b578181101561071b578281836040517ffb8f41b20000000000000000000000000000000000000000000000000000000081526004016107129392919061120b565b60405180910390fd5b61072a84848484036000610a76565b5b50505050565b600073ffffffffffffffffffffffffffffffffffffffff168373ffffffffffffffffffffffffffffffffffffffff16036107a35760006040517f96c6fd1e00000000000000000000000000000000000000000000000000000000815260040161079a9190611150565b60405180910390fd5b600073ffffffffffffffffffffffffffffffffffffffff168273ffffffffffffffffffffffffffffffffffffffff16036108155760006040517fec442f0500000000000000000000000000000000000000000000000000000000815260040161080c9190611150565b60405180910390fd5b610820838383610c4d565b505050565b61082d610683565b73ffffffffffffffffffffffffffffffffffffffff1661084b610497565b73ffffffffffffffffffffffffffffffffffffffff16146108aa5761086e610683565b6040517f118cdaa70000000000000000000000000000000000000000000000000000000081526004016108a19190611150565b60405180910390fd5b565b600073ffffffffffffffffffffffffffffffffffffffff168273ffffffffffffffffffffffffffffffffffffffff160361091e5760006040517fec442f050000000000000000000000000000000000000000000000000000000081526004016109159190611150565b60405180910390fd5b61092a60008383610c4d565b5050565b600073ffffffffffffffffffffffffffffffffffffffff168273ffffffffffffffffffffffffffffffffffffffff16036109a05760006040517f96c6fd1e0000000000000000000000000000000000000000000000000000000081526004016109979190611150565b60405180910390fd5b6109ac82600083610c4d565b5050565b6000600560009054906101000a900473ffffffffffffffffffffffffffffffffffffffff16905081600560006101000a81548173ffffffffffffffffffffffffffffffffffffffff021916908373ffffffffffffffffffffffffffffffffffffffff1602179055508173ffffffffffffffffffffffffffffffffffffffff168173ffffffffffffffffffffffffffffffffffffffff167f8be0079c531659141344cd1fd0a4f28419497f9722a3daafe3b4186f6b6457e060405160405180910390a35050565b600073ffffffffffffffffffffffffffffffffffffffff168473ffffffffffffffffffffffffffffffffffffffff1603610ae85760006040517fe602df05000000000000000000000000000000000000000000000000000000008152600401610adf9190611150565b60405180910390fd5b600073ffffffffffffffffffffffffffffffffffffffff168373ffffffffffffffffffffffffffffffffffffffff1603610b5a5760006040517f94280d62000000000000000000000000000000000000000000000000000000008152600401610b519190611150565b60405180910390fd5b81600160008673ffffffffffffffffffffffffffffffffffffffff1673ffffffffffffffffffffffffffffffffffffffff16815260200190815260200160002060008573ffffffffffffffffffffffffffffffffffffffff1673ffffffffffffffffffffffffffffffffffffffff168152602001908152602001600020819055508015610c47578273ffffffffffffffffffffffffffffffffffffffff168473ffffffffffffffffffffffffffffffffffffffff167f8c5be1e5ebec7d5bd14f71427d1e84f3dd0314c0f7b2291e5b200ac8c7c3b92584604051610c3e9190611042565b60405180910390a35b50505050565b600073ffffffffffffffffffffffffffffffffffffffff168373ffffffffffffffffffffffffffffffffffffffff1603610c9f578060026000828254610c939190611271565b92505081905550610d72565b60008060008573ffffffffffffffffffffffffffffffffffffffff1673ffffffffffffffffffffffffffffffffffffffff16815260200190815260200160002054905081811015610d2b578381836040517fe450d38c000000000000000000000000000000000000000000000000000000008152600401610d229392919061120b565b60405180910390fd5b8181036000808673ffffffffffffffffffffffffffffffffffffffff1673ffffffffffffffffffffffffffffffffffffffff16815260200190815260200160002081905550505b600073ffffffffffffffffffffffffffffffffffffffff168273ffffffffffffffffffffffffffffffffffffffff1603610dbb5780600260008282540392505081905550610e08565b806000808473ffffffffffffffffffffffffffffffffffffffff1673ffffffffffffffffffffffffffffffffffffffff168152602001908152602001600020600082825401925050819055505b8173ffffffffffffffffffffffffffffffffffffffff168373ffffffffffffffffffffffffffffffffffffffff167fddf252ad1be2c89b69c2b068fc378daa952ba7f163c4a11628f55a4df523b3ef83604051610e659190611042565b60405180910390a3505050565b600081519050919050565b600082825260208201905092915050565b60005b83811015610eac578082015181840152602081019050610e91565b60008484015250505050565b6000601f19601f8301169050919050565b6000610ed482610e72565b610ede8185610e7d565b9350610eee818560208601610e8e565b610ef781610eb8565b840191505092915050565b60006020820190508181036000830152610f1c8184610ec9565b905092915050565b600080fd5b600073ffffffffffffffffffffffffffffffffffffffff82169050919050565b6000610f5482610f29565b9050919050565b610f6481610f49565b8114610f6f57600080fd5b50565b600081359050610f8181610f5b565b92915050565b6000819050919050565b610f9a81610f87565b8114610fa557600080fd5b50565b600081359050610fb781610f91565b92915050565b60008060408385031215610fd457610fd3610f24565b5b6000610fe285828601610f72565b9250506020610ff385828601610fa8565b9150509250929050565b60008115159050919050565b61101281610ffd565b82525050565b600060208201905061102d6000830184611009565b92915050565b61103c81610f87565b82525050565b60006020820190506110576000830184611033565b92915050565b60008060006060848603121561107657611075610f24565b5b600061108486828701610f72565b935050602061109586828701610f72565b92505060406110a686828701610fa8565b9150509250925092565b600060ff82169050919050565b6110c6816110b0565b82525050565b60006020820190506110e160008301846110bd565b92915050565b6000602082840312156110fd576110fc610f24565b5b600061110b84828501610fa8565b91505092915050565b60006020828403121561112a57611129610f24565b5b600061113884828501610f72565b91505092915050565b61114a81610f49565b82525050565b60006020820190506111656000830184611141565b92915050565b6000806040838503121561118257611181610f24565b5b600061119085828601610f72565b92505060206111a185828601610f72565b9150509250929050565b7f4e487b7100000000000000000000000000000000000000000000000000000000600052602260045260246000fd5b600060028204905060018216806111f257607f821691505b602082108103611205576112046111ab565b5b50919050565b60006060820190506112206000830186611141565b61122d6020830185611033565b61123a6040830184611033565b949350505050565b7f4e487b7100000000000000000000000000000000000000000000000000000000600052601160045260246000fd5b600061127c82610f87565b915061128783610f87565b925082820190508082111561129f5761129e611242565b5b9291505056fea2646970667358221220fbe92a77c5e1586e121e11c415ee7f842d95618033c26da47bee031b7e9abbb364736f6c63430008140033a264697066735822122085b3d8a6ec9ecbe0a2fd38134533f4f01d983fd1dea71c4a857b21c9c3e4edf664736f6c63430008140033",
  "linkReferences": {},
  "deployedLinkReferences": {}
}