{
  "_format": "hh-sol-artifact-1",
  "contractName": "StarTickets",
  "sourceName": "contracts/starTickets.sol",
  "abi": [
    {
      "inputs": [],
      "name": "InvalidInitialization",
      "type": "error"
    },
    {
      "inputs": [],
      "name": "NotInitializing",
      "type": "error"
    },
    {
      "inputs": [
        {
          "internalType": "address",
          "name": "owner",
          "type": "address"
        }
      ],
      "name": "OwnableInvalidOwner",
      "type": "error"
    },
    {
      "inputs": [
        {
          "internalType": "address",
          "name": "account",
          "type": "address"
        }
      ],
      "name": "OwnableUnauthorizedAccount",
      "type": "error"
    },
    {
      "inputs": [],
      "name": "ReentrancyGuardReentrantCall",
      "type": "error"
    },
    {
      "anonymous": false,
      "inputs": [
        {
          "indexed": true,
          "internalType": "address",
          "name": "owner",
          "type": "address"
        },
        {
          "indexed": false,
          "internalType": "uint256",
          "name": "amount",
          "type": "uint256"
        }
      ],
      "name": "AvaxWithdrawn",
      "type": "event"
    },
    {
      "anonymous": false,
      "inputs": [
        {
          "indexed": true,
          "internalType": "address",
          "name": "owner",
          "type": "address"
        },
        {
          "indexed": true,
          "internalType": "address",
          "name": "tokenAddress",
          "type": "address"
        },
        {
          "indexed": false,
          "internalType": "uint256",
          "name": "amount",
          "type": "uint256"
        }
      ],
      "name": "ERC20Withdrawn",
      "type": "event"
    },
    {
      "anonymous": false,
      "inputs": [
        {
          "indexed": false,
          "internalType": "uint64",
          "name": "version",
          "type": "uint64"
        }
      ],
      "name": "Initialized",
      "type": "event"
    },
    {
      "anonymous": false,
      "inputs": [
        {
          "indexed": true,
          "internalType": "address",
          "name": "previousOwner",
          "type": "address"
        },
        {
          "indexed": true,
          "internalType": "address",
          "name": "newOwner",
          "type": "address"
        }
      ],
      "name": "OwnershipTransferred",
      "type": "event"
    },
    {
      "anonymous": false,
      "inputs": [
        {
          "indexed": true,
          "internalType": "address",
          "name": "oldReferrer",
          "type": "address"
        },
        {
          "indexed": true,
          "internalType": "address",
          "name": "newReferrer",
          "type": "address"
        }
      ],
      "name": "ReferrerChanged",
      "type": "event"
    },
    {
      "anonymous": false,
      "inputs": [
        {
          "indexed": true,
          "internalType": "address",
          "name": "buyer",
          "type": "address"
        },
        {
          "indexed": true,
          "internalType": "address",
          "name": "subject",
          "type": "address"
        },
        {
          "indexed": false,
          "internalType": "uint256",
          "name": "amount",
          "type": "uint256"
        },
        {
          "indexed": false,
          "internalType": "uint256",
          "name": "price",
          "type": "uint256"
        }
      ],
      "name": "TicketBought",
      "type": "event"
    },
    {
      "anonymous": false,
      "inputs": [
        {
          "indexed": true,
          "internalType": "address",
          "name": "seller",
          "type": "address"
        },
        {
          "indexed": true,
          "internalType": "address",
          "name": "subject",
          "type": "address"
        },
        {
          "indexed": false,
          "internalType": "uint256",
          "name": "amount",
          "type": "uint256"
        },
        {
          "indexed": false,
          "internalType": "uint256",
          "name": "price",
          "type": "uint256"
        }
      ],
      "name": "TicketSold",
      "type": "event"
    },
    {
      "inputs": [
        {
          "internalType": "address",
          "name": "subject",
          "type": "address"
        },
        {
          "internalType": "uint256",
          "name": "amount",
          "type": "uint256"
        }
      ],
      "name": "buyTicket",
      "outputs": [],
      "stateMutability": "payable",
      "type": "function"
    },
    {
      "inputs": [
        {
          "internalType": "address",
          "name": "_starsArenaAddress",
          "type": "address"
        },
        {
          "internalType": "address",
          "name": "_starRegistryAddress",
          "type": "address"
        },
        {
          "internalType": "address",
          "name": "_referrer",
          "type": "address"
        }
      ],
      "name": "initialize",
      "outputs": [],
      "stateMutability": "nonpayable",
      "type": "function"
    },
    {
      "inputs": [],
      "name": "owner",
      "outputs": [
        {
          "internalType": "address",
          "name": "",
          "type": "address"
        }
      ],
      "stateMutability": "view",
      "type": "function"
    },
    {
      "inputs": [],
      "name": "referral",
      "outputs": [
        {
          "internalType": "address",
          "name": "",
          "type": "address"
        }
      ],
      "stateMutability": "view",
      "type": "function"
    },
    {
      "inputs": [],
      "name": "renounceOwnership",
      "outputs": [],
      "stateMutability": "nonpayable",
      "type": "function"
    },
    {
      "inputs": [
        {
          "internalType": "address",
          "name": "subject",
          "type": "address"
        },
        {
          "internalType": "uint256",
          "name": "amount",
          "type": "uint256"
        }
      ],
      "name": "sellTicket",
      "outputs": [],
      "stateMutability": "nonpayable",
      "type": "function"
    },
    {
      "inputs": [
        {
          "internalType": "address",
          "name": "_newReferrer",
          "type": "address"
        }
      ],
      "name": "setReferrer",
      "outputs": [],
      "stateMutability": "nonpayable",
      "type": "function"
    },
    {
      "inputs": [],
      "name": "starRegistry",
      "outputs": [
        {
          "internalType": "contract IStarRegistry",
          "name": "",
          "type": "address"
        }
      ],
      "stateMutability": "view",
      "type": "function"
    },
    {
      "inputs": [],
      "name": "starsArena",
      "outputs": [
        {
          "internalType": "contract IStarsArena",
          "name": "",
          "type": "address"
        }
      ],
      "stateMutability": "view",
      "type": "function"
    },
    {
      "inputs": [
        {
          "internalType": "address",
          "name": "",
          "type": "address"
        }
      ],
      "name": "subjectToToken",
      "outputs": [
        {
          "internalType": "contract IERC20Burnable",
          "name": "",
          "type": "address"
        }
      ],
      "stateMutability": "view",
      "type": "function"
    },
    {
      "inputs": [
        {
          "internalType": "address",
          "name": "newOwner",
          "type": "address"
        }
      ],
      "name": "transferOwnership",
      "outputs": [],
      "stateMutability": "nonpayable",
      "type": "function"
    },
    {
      "inputs": [
        {
          "internalType": "address",
          "name": "_tokenAddress",
          "type": "address"
        }
      ],
      "name": "withdrawArbitraryERC20",
      "outputs": [],
      "stateMutability": "nonpayable",
      "type": "function"
    },
    {
      "inputs": [],
      "name": "withdrawAvax",
      "outputs": [],
      "stateMutability": "nonpayable",
      "type": "function"
    },
    {
      "stateMutability": "payable",
      "type": "receive"
    }
  ],
  "bytecode": "0x608060405234801561001057600080fd5b50613efb806100206000396000f3fe608060405260043610620000eb5760003560e01c80638da5cb5b116200008b578063c0c53b8b1162000061578063c0c53b8b1462000266578063c99f4e3c1462000294578063edf622f514620002c4578063f2fde38b146200030857620000f3565b80638da5cb5b14620001ee578063a18a7bfc146200021e578063b4fad1b5146200024c57620000f3565b806366a5ef2f11620000c157806366a5ef2f1462000184578063715018a614620001a45780637158c89314620001be57620000f3565b80631441a5a914620000f857806319d6793b14620001285780633d860117146200015657620000f3565b36620000f357005b600080fd5b3480156200010557600080fd5b506200011062000336565b6040516200011f9190620018bb565b60405180910390f35b3480156200013557600080fd5b506200015460048036038101906200014e91906200191d565b6200035c565b005b3480156200016357600080fd5b506200018260048036038101906200017c91906200198a565b62000536565b005b620001a260048036038101906200019c91906200198a565b620008a3565b005b348015620001b157600080fd5b50620001bc62000ebc565b005b348015620001cb57600080fd5b50620001d662000ed4565b604051620001e5919062001a3c565b60405180910390f35b348015620001fb57600080fd5b506200020662000efa565b604051620002159190620018bb565b60405180910390f35b3480156200022b57600080fd5b506200024a60048036038101906200024491906200191d565b62000f34565b005b3480156200025957600080fd5b506200026462001076565b005b3480156200027357600080fd5b506200029260048036038101906200028c919062001a59565b62001178565b005b348015620002a157600080fd5b50620002ac620013e1565b604051620002bb919062001ada565b60405180910390f35b348015620002d157600080fd5b50620002f06004803603810190620002ea91906200191d565b62001405565b604051620002ff919062001b1c565b60405180910390f35b3480156200031557600080fd5b506200033460048036038101906200032e91906200191d565b62001438565b005b600260009054906101000a900473ffffffffffffffffffffffffffffffffffffffff1681565b62000366620014c5565b600081905060008173ffffffffffffffffffffffffffffffffffffffff166370a08231306040518263ffffffff1660e01b8152600401620003a89190620018bb565b602060405180830381865afa158015620003c6573d6000803e3d6000fd5b505050506040513d601f19601f82011682018060405250810190620003ec919062001b50565b90506000811162000434576040517f08c379a00000000000000000000000000000000000000000000000000000000081526004016200042b9062001be3565b60405180910390fd5b8173ffffffffffffffffffffffffffffffffffffffff1663a9059cbb6200045a62000efa565b836040518363ffffffff1660e01b81526004016200047a92919062001c16565b6020604051808303816000875af11580156200049a573d6000803e3d6000fd5b505050506040513d601f19601f82011682018060405250810190620004c0919062001c80565b508273ffffffffffffffffffffffffffffffffffffffff16620004e262000efa565b73ffffffffffffffffffffffffffffffffffffffff167fbfed55bdcd242e3dd0f60ddd7d1e87c67f61c34cd9527b3e6455d841b10253628360405162000529919062001cb2565b60405180910390a3505050565b6200054062001555565b6000600360008473ffffffffffffffffffffffffffffffffffffffff1673ffffffffffffffffffffffffffffffffffffffff16815260200190815260200160002060009054906101000a900473ffffffffffffffffffffffffffffffffffffffff169050600073ffffffffffffffffffffffffffffffffffffffff168173ffffffffffffffffffffffffffffffffffffffff160362000616576040517f08c379a00000000000000000000000000000000000000000000000000000000081526004016200060d9062001d1f565b60405180910390fd5b8073ffffffffffffffffffffffffffffffffffffffff166379cc679033846040518363ffffffff1660e01b81526004016200065392919062001c16565b600060405180830381600087803b1580156200066e57600080fd5b505af115801562000683573d6000803e3d6000fd5b5050505060008060009054906101000a900473ffffffffffffffffffffffffffffffffffffffff1673ffffffffffffffffffffffffffffffffffffffff16632267a89c85856040518363ffffffff1660e01b8152600401620006e792919062001c16565b602060405180830381865afa15801562000705573d6000803e3d6000fd5b505050506040513d601f19601f820116820180604052508101906200072b919062001b50565b905060008054906101000a900473ffffffffffffffffffffffffffffffffffffffff1673ffffffffffffffffffffffffffffffffffffffff1663aac35d878585600260009054906101000a900473ffffffffffffffffffffffffffffffffffffffff166040518463ffffffff1660e01b8152600401620007ae9392919062001d41565b600060405180830381600087803b158015620007c957600080fd5b505af1158015620007de573d6000803e3d6000fd5b505050503373ffffffffffffffffffffffffffffffffffffffff166108fc829081150290604051600060405180830381858888f1935050505015801562000829573d6000803e3d6000fd5b508373ffffffffffffffffffffffffffffffffffffffff163373ffffffffffffffffffffffffffffffffffffffff167f5f784331eba7d7fbb7d2659ae923e07363352c554c99b3152b4de5e7a3efba5885846040516200088b92919062001d7e565b60405180910390a350506200089f620015af565b5050565b620008ad62001555565b80341015620008f3576040517f08c379a0000000000000000000000000000000000000000000000000000000008152600401620008ea9062001dfb565b60405180910390fd5b60008060009054906101000a900473ffffffffffffffffffffffffffffffffffffffff1673ffffffffffffffffffffffffffffffffffffffff16630f026f6d84846040518363ffffffff1660e01b81526004016200095392919062001c16565b602060405180830381865afa15801562000971573d6000803e3d6000fd5b505050506040513d601f19601f8201168201806040525081019062000997919062001b50565b905080341015620009df576040517f08c379a0000000000000000000000000000000000000000000000000000000008152600401620009d69062001e93565b60405180910390fd5b60008054906101000a900473ffffffffffffffffffffffffffffffffffffffff1673ffffffffffffffffffffffffffffffffffffffff1663e9ccf3a3828585600260009054906101000a900473ffffffffffffffffffffffffffffffffffffffff166040518563ffffffff1660e01b815260040162000a619392919062001d41565b6000604051808303818588803b15801562000a7b57600080fd5b505af115801562000a90573d6000803e3d6000fd5b50505050506000813462000aa5919062001ee4565b9050600081111562000afa573373ffffffffffffffffffffffffffffffffffffffff166108fc829081150290604051600060405180830381858888f1935050505015801562000af8573d6000803e3d6000fd5b505b6000600360008673ffffffffffffffffffffffffffffffffffffffff1673ffffffffffffffffffffffffffffffffffffffff16815260200190815260200160002060009054906101000a900473ffffffffffffffffffffffffffffffffffffffff169050600073ffffffffffffffffffffffffffffffffffffffff168173ffffffffffffffffffffffffffffffffffffffff160362000dd1576000600160009054906101000a900473ffffffffffffffffffffffffffffffffffffffff1673ffffffffffffffffffffffffffffffffffffffff166376d4e674876040518263ffffffff1660e01b815260040162000bf29190620018bb565b600060405180830381865afa15801562000c10573d6000803e3d6000fd5b505050506040513d6000823e3d601f19601f8201168201806040525081019062000c3b91906200209e565b905060608060008351111562000c99578260405160200162000c5e91906200218c565b60405160208183030381529060405291508260405160200162000c82919062002202565b604051602081830303815290604052905062000d0a565b6040518060400160405280600b81526020017f53746172205469636b657400000000000000000000000000000000000000000081525091506040518060400160405280600381526020017f544b54000000000000000000000000000000000000000000000000000000000081525090505b600082823060405162000d1d9062001868565b62000d2b9392919062002269565b604051809103906000f08015801562000d48573d6000803e3d6000fd5b50905080600360008b73ffffffffffffffffffffffffffffffffffffffff1673ffffffffffffffffffffffffffffffffffffffff16815260200190815260200160002060006101000a81548173ffffffffffffffffffffffffffffffffffffffff021916908373ffffffffffffffffffffffffffffffffffffffff160217905550809450505050505b8073ffffffffffffffffffffffffffffffffffffffff166340c10f1933866040518363ffffffff1660e01b815260040162000e0e92919062001c16565b600060405180830381600087803b15801562000e2957600080fd5b505af115801562000e3e573d6000803e3d6000fd5b505050508473ffffffffffffffffffffffffffffffffffffffff163373ffffffffffffffffffffffffffffffffffffffff167f78cbb09c0a5c03b94a37baf97d04dbbdb4e2ff62148f3255ebb24211c47d1c81868660405162000ea392919062001d7e565b60405180910390a350505062000eb8620015af565b5050565b62000ec6620014c5565b62000ed26000620015ca565b565b600160009054906101000a900473ffffffffffffffffffffffffffffffffffffffff1681565b60008062000f07620016a3565b90508060000160009054906101000a900473ffffffffffffffffffffffffffffffffffffffff1691505090565b62000f3e620014c5565b600073ffffffffffffffffffffffffffffffffffffffff168173ffffffffffffffffffffffffffffffffffffffff160362000fb0576040517f08c379a000000000000000000000000000000000000000000000000000000000815260040162000fa7906200232a565b60405180910390fd5b6000600260009054906101000a900473ffffffffffffffffffffffffffffffffffffffff16905081600260006101000a81548173ffffffffffffffffffffffffffffffffffffffff021916908373ffffffffffffffffffffffffffffffffffffffff1602179055508173ffffffffffffffffffffffffffffffffffffffff168173ffffffffffffffffffffffffffffffffffffffff167f4e6064ef60905499136c7b525d26eb2391902bea33127bf500a03fbc89685b4a60405160405180910390a35050565b62001080620014c5565b600047905060008111620010cb576040517f08c379a0000000000000000000000000000000000000000000000000000000008152600401620010c2906200239c565b60405180910390fd5b620010d562000efa565b73ffffffffffffffffffffffffffffffffffffffff166108fc829081150290604051600060405180830381858888f193505050501580156200111b573d6000803e3d6000fd5b506200112662000efa565b73ffffffffffffffffffffffffffffffffffffffff167f9e803e6e0f30d5a29a21b85f17b6a0a2e181b5cad9c30bcd9e09240040d52cf4826040516200116d919062001cb2565b60405180910390a250565b600062001184620016cb565b905060008160000160089054906101000a900460ff1615905060008260000160009054906101000a900467ffffffffffffffff1690506000808267ffffffffffffffff16148015620011d35750825b9050600060018367ffffffffffffffff1614801562001209575060003073ffffffffffffffffffffffffffffffffffffffff163b145b90508115801562001218575080155b1562001250576040517ff92ee8a900000000000000000000000000000000000000000000000000000000815260040160405180910390fd5b60018560000160006101000a81548167ffffffffffffffff021916908367ffffffffffffffff1602179055508315620012a15760018560000160086101000a81548160ff0219169083151502179055505b620012ac33620016f3565b620012b66200170b565b876000806101000a81548173ffffffffffffffffffffffffffffffffffffffff021916908373ffffffffffffffffffffffffffffffffffffffff16021790555086600160006101000a81548173ffffffffffffffffffffffffffffffffffffffff021916908373ffffffffffffffffffffffffffffffffffffffff16021790555085600260006101000a81548173ffffffffffffffffffffffffffffffffffffffff021916908373ffffffffffffffffffffffffffffffffffffffff1602179055508315620013d75760008560000160086101000a81548160ff0219169083151502179055507fc7f505b2f371ae2175ee4913f4499e1f2633a7b5936321eed1cdaeb6115181d26001604051620013ce919062002415565b60405180910390a15b5050505050505050565b60008054906101000a900473ffffffffffffffffffffffffffffffffffffffff1681565b60036020528060005260406000206000915054906101000a900473ffffffffffffffffffffffffffffffffffffffff1681565b62001442620014c5565b600073ffffffffffffffffffffffffffffffffffffffff168173ffffffffffffffffffffffffffffffffffffffff1603620014b75760006040517f1e4fbdf7000000000000000000000000000000000000000000000000000000008152600401620014ae9190620018bb565b60405180910390fd5b620014c281620015ca565b50565b620014cf62001721565b73ffffffffffffffffffffffffffffffffffffffff16620014ef62000efa565b73ffffffffffffffffffffffffffffffffffffffff161462001553576200151562001721565b6040517f118cdaa70000000000000000000000000000000000000000000000000000000081526004016200154a9190620018bb565b60405180910390fd5b565b60006200156162001729565b90506002816000015403620015a2576040517f3ee5aeb500000000000000000000000000000000000000000000000000000000815260040160405180910390fd5b6002816000018190555050565b6000620015bb62001729565b90506001816000018190555050565b6000620015d6620016a3565b905060008160000160009054906101000a900473ffffffffffffffffffffffffffffffffffffffff169050828260000160006101000a81548173ffffffffffffffffffffffffffffffffffffffff021916908373ffffffffffffffffffffffffffffffffffffffff1602179055508273ffffffffffffffffffffffffffffffffffffffff168173ffffffffffffffffffffffffffffffffffffffff167f8be0079c531659141344cd1fd0a4f28419497f9722a3daafe3b4186f6b6457e060405160405180910390a3505050565b60007f9016d09d72d40fdae2fd8ceac6b6234c7706214fd39c1cd1e609a0528c199300905090565b60007ff0c57e16840df040f15088dc2f81fe391c3923bec73e23a9662efc9c229c6a00905090565b620016fd62001751565b620017088162001794565b50565b6200171562001751565b6200171f62001821565b565b600033905090565b60007f9b779b17422d0df92223018b32b4d1fa46e071723d6817e2486d003becc55f00905090565b6200175b62001846565b62001792576040517fd7e6bcf800000000000000000000000000000000000000000000000000000000815260040160405180910390fd5b565b6200179e62001751565b600073ffffffffffffffffffffffffffffffffffffffff168173ffffffffffffffffffffffffffffffffffffffff1603620018135760006040517f1e4fbdf70000000000000000000000000000000000000000000000000000000081526004016200180a9190620018bb565b60405180910390fd5b6200181e81620015ca565b50565b6200182b62001751565b60006200183762001729565b90506001816000018190555050565b600062001852620016cb565b60000160089054906101000a900460ff16905090565b611a93806200243383390190565b600073ffffffffffffffffffffffffffffffffffffffff82169050919050565b6000620018a38262001876565b9050919050565b620018b58162001896565b82525050565b6000602082019050620018d26000830184620018aa565b92915050565b6000604051905090565b600080fd5b600080fd5b620018f78162001896565b81146200190357600080fd5b50565b6000813590506200191781620018ec565b92915050565b600060208284031215620019365762001935620018e2565b5b6000620019468482850162001906565b91505092915050565b6000819050919050565b62001964816200194f565b81146200197057600080fd5b50565b600081359050620019848162001959565b92915050565b60008060408385031215620019a457620019a3620018e2565b5b6000620019b48582860162001906565b9250506020620019c78582860162001973565b9150509250929050565b6000819050919050565b6000620019fc620019f6620019f08462001876565b620019d1565b62001876565b9050919050565b600062001a1082620019db565b9050919050565b600062001a248262001a03565b9050919050565b62001a368162001a17565b82525050565b600060208201905062001a53600083018462001a2b565b92915050565b60008060006060848603121562001a755762001a74620018e2565b5b600062001a858682870162001906565b935050602062001a988682870162001906565b925050604062001aab8682870162001906565b9150509250925092565b600062001ac28262001a03565b9050919050565b62001ad48162001ab5565b82525050565b600060208201905062001af1600083018462001ac9565b92915050565b600062001b048262001a03565b9050919050565b62001b168162001af7565b82525050565b600060208201905062001b33600083018462001b0b565b92915050565b60008151905062001b4a8162001959565b92915050565b60006020828403121562001b695762001b68620018e2565b5b600062001b798482850162001b39565b91505092915050565b600082825260208201905092915050565b7f4e6f20746f6b656e7320746f2077697468647261770000000000000000000000600082015250565b600062001bcb60158362001b82565b915062001bd88262001b93565b602082019050919050565b6000602082019050818103600083015262001bfe8162001bbc565b9050919050565b62001c10816200194f565b82525050565b600060408201905062001c2d6000830185620018aa565b62001c3c602083018462001c05565b9392505050565b60008115159050919050565b62001c5a8162001c43565b811462001c6657600080fd5b50565b60008151905062001c7a8162001c4f565b92915050565b60006020828403121562001c995762001c98620018e2565b5b600062001ca98482850162001c69565b91505092915050565b600060208201905062001cc9600083018462001c05565b92915050565b7f546f6b656e20666f72207375626a656374206e6f7420666f756e640000000000600082015250565b600062001d07601b8362001b82565b915062001d148262001ccf565b602082019050919050565b6000602082019050818103600083015262001d3a8162001cf8565b9050919050565b600060608201905062001d586000830186620018aa565b62001d67602083018562001c05565b62001d766040830184620018aa565b949350505050565b600060408201905062001d95600083018562001c05565b62001da4602083018462001c05565b9392505050565b7f496e73756666696369656e742066756e64732073656e74000000000000000000600082015250565b600062001de360178362001b82565b915062001df08262001dab565b602082019050919050565b6000602082019050818103600083015262001e168162001dd4565b9050919050565b7f496e73756666696369656e742066756e647320666f72207469636b657420707260008201527f69636520696e636c7564696e6720666565000000000000000000000000000000602082015250565b600062001e7b60318362001b82565b915062001e888262001e1d565b604082019050919050565b6000602082019050818103600083015262001eae8162001e6c565b9050919050565b7f4e487b7100000000000000000000000000000000000000000000000000000000600052601160045260246000fd5b600062001ef1826200194f565b915062001efe836200194f565b925082820390508181111562001f195762001f1862001eb5565b5b92915050565b600080fd5b600080fd5b6000601f19601f8301169050919050565b7f4e487b7100000000000000000000000000000000000000000000000000000000600052604160045260246000fd5b62001f748262001f29565b810181811067ffffffffffffffff8211171562001f965762001f9562001f3a565b5b80604052505050565b600062001fab620018d8565b905062001fb9828262001f69565b919050565b600067ffffffffffffffff82111562001fdc5762001fdb62001f3a565b5b62001fe78262001f29565b9050602081019050919050565b60005b838110156200201457808201518184015260208101905062001ff7565b60008484015250505050565b600062002037620020318462001fbe565b62001f9f565b90508281526020810184848401111562002056576200205562001f24565b5b6200206384828562001ff4565b509392505050565b600082601f83011262002083576200208262001f1f565b5b81516200209584826020860162002020565b91505092915050565b600060208284031215620020b757620020b6620018e2565b5b600082015167ffffffffffffffff811115620020d857620020d7620018e7565b5b620020e6848285016200206b565b91505092915050565b600081519050919050565b600081905092915050565b60006200211282620020ef565b6200211e8185620020fa565b93506200213081856020860162001ff4565b80840191505092915050565b7f2053746172205469636b65740000000000000000000000000000000000000000600082015250565b600062002174600c83620020fa565b915062002181826200213c565b600c82019050919050565b60006200219a828462002105565b9150620021a78262002165565b915081905092915050565b7f544b540000000000000000000000000000000000000000000000000000000000600082015250565b6000620021ea600383620020fa565b9150620021f782620021b2565b600382019050919050565b600062002210828462002105565b91506200221d82620021db565b915081905092915050565b60006200223582620020ef565b62002241818562001b82565b93506200225381856020860162001ff4565b6200225e8162001f29565b840191505092915050565b6000606082019050818103600083015262002285818662002228565b905081810360208301526200229b818562002228565b9050620022ac6040830184620018aa565b949350505050565b7f4e65772072656665727265722063616e6e6f7420626520746865207a65726f2060008201527f616464726573732e000000000000000000000000000000000000000000000000602082015250565b60006200231260288362001b82565b91506200231f82620022b4565b604082019050919050565b60006020820190508181036000830152620023458162002303565b9050919050565b7f4e6f204156415820746f20776974686472617700000000000000000000000000600082015250565b60006200238460138362001b82565b915062002391826200234c565b602082019050919050565b60006020820190508181036000830152620023b78162002375565b9050919050565b6000819050919050565b600067ffffffffffffffff82169050919050565b6000620023fd620023f7620023f184620023be565b620019d1565b620023c8565b9050919050565b6200240f81620023dc565b82525050565b60006020820190506200242c600083018462002404565b9291505056fe60806040523480156200001157600080fd5b5060405162001a9338038062001a938339818101604052810190620000379190620003ae565b80838381600390816200004b919062000693565b5080600490816200005d919062000693565b505050600073ffffffffffffffffffffffffffffffffffffffff168173ffffffffffffffffffffffffffffffffffffffff1603620000d55760006040517f1e4fbdf7000000000000000000000000000000000000000000000000000000008152600401620000cc91906200078b565b60405180910390fd5b620000e681620000f060201b60201c565b50505050620007a8565b6000600560009054906101000a900473ffffffffffffffffffffffffffffffffffffffff16905081600560006101000a81548173ffffffffffffffffffffffffffffffffffffffff021916908373ffffffffffffffffffffffffffffffffffffffff1602179055508173ffffffffffffffffffffffffffffffffffffffff168173ffffffffffffffffffffffffffffffffffffffff167f8be0079c531659141344cd1fd0a4f28419497f9722a3daafe3b4186f6b6457e060405160405180910390a35050565b6000604051905090565b600080fd5b600080fd5b600080fd5b600080fd5b6000601f19601f8301169050919050565b7f4e487b7100000000000000000000000000000000000000000000000000000000600052604160045260246000fd5b6200021f82620001d4565b810181811067ffffffffffffffff82111715620002415762000240620001e5565b5b80604052505050565b600062000256620001b6565b905062000264828262000214565b919050565b600067ffffffffffffffff821115620002875762000286620001e5565b5b6200029282620001d4565b9050602081019050919050565b60005b83811015620002bf578082015181840152602081019050620002a2565b60008484015250505050565b6000620002e2620002dc8462000269565b6200024a565b905082815260208101848484011115620003015762000300620001cf565b5b6200030e8482856200029f565b509392505050565b600082601f8301126200032e576200032d620001ca565b5b815162000340848260208601620002cb565b91505092915050565b600073ffffffffffffffffffffffffffffffffffffffff82169050919050565b6000620003768262000349565b9050919050565b620003888162000369565b81146200039457600080fd5b50565b600081519050620003a8816200037d565b92915050565b600080600060608486031215620003ca57620003c9620001c0565b5b600084015167ffffffffffffffff811115620003eb57620003ea620001c5565b5b620003f98682870162000316565b935050602084015167ffffffffffffffff8111156200041d576200041c620001c5565b5b6200042b8682870162000316565b92505060406200043e8682870162000397565b9150509250925092565b600081519050919050565b7f4e487b7100000000000000000000000000000000000000000000000000000000600052602260045260246000fd5b600060028204905060018216806200049b57607f821691505b602082108103620004b157620004b062000453565b5b50919050565b60008190508160005260206000209050919050565b60006020601f8301049050919050565b600082821b905092915050565b6000600883026200051b7fffffffffffffffffffffffffffffffffffffffffffffffffffffffffffffffff82620004dc565b620005278683620004dc565b95508019841693508086168417925050509392505050565b6000819050919050565b6000819050919050565b6000620005746200056e62000568846200053f565b62000549565b6200053f565b9050919050565b6000819050919050565b620005908362000553565b620005a86200059f826200057b565b848454620004e9565b825550505050565b600090565b620005bf620005b0565b620005cc81848462000585565b505050565b5b81811015620005f457620005e8600082620005b5565b600181019050620005d2565b5050565b601f82111562000643576200060d81620004b7565b6200061884620004cc565b8101602085101562000628578190505b620006406200063785620004cc565b830182620005d1565b50505b505050565b600082821c905092915050565b6000620006686000198460080262000648565b1980831691505092915050565b600062000683838362000655565b9150826002028217905092915050565b6200069e8262000448565b67ffffffffffffffff811115620006ba57620006b9620001e5565b5b620006c6825462000482565b620006d3828285620005f8565b600060209050601f8311600181146200070b5760008415620006f6578287015190505b62000702858262000675565b86555062000772565b601f1984166200071b86620004b7565b60005b8281101562000745578489015182556001820191506020850194506020810190506200071e565b8683101562000765578489015162000761601f89168262000655565b8355505b6001600288020188555050505b505050505050565b620007858162000369565b82525050565b6000602082019050620007a260008301846200077a565b92915050565b6112db80620007b86000396000f3fe608060405234801561001057600080fd5b50600436106100f55760003560e01c806370a082311161009757806395d89b411161006657806395d89b4114610260578063a9059cbb1461027e578063dd62ed3e146102ae578063f2fde38b146102de576100f5565b806370a08231146101ec578063715018a61461021c57806379cc6790146102265780638da5cb5b14610242576100f5565b806323b872dd116100d357806323b872dd14610166578063313ce5671461019657806340c10f19146101b457806342966c68146101d0576100f5565b806306fdde03146100fa578063095ea7b31461011857806318160ddd14610148575b600080fd5b6101026102fa565b60405161010f9190610f02565b60405180910390f35b610132600480360381019061012d9190610fbd565b61038c565b60405161013f9190611018565b60405180910390f35b6101506103af565b60405161015d9190611042565b60405180910390f35b610180600480360381019061017b919061105d565b6103b9565b60405161018d9190611018565b60405180910390f35b61019e6103e8565b6040516101ab91906110cc565b60405180910390f35b6101ce60048036038101906101c99190610fbd565b6103f1565b005b6101ea60048036038101906101e591906110e7565b610407565b005b61020660048036038101906102019190611114565b61041b565b6040516102139190611042565b60405180910390f35b610224610463565b005b610240600480360381019061023b9190610fbd565b610477565b005b61024a610497565b6040516102579190611150565b60405180910390f35b6102686104c1565b6040516102759190610f02565b60405180910390f35b61029860048036038101906102939190610fbd565b610553565b6040516102a59190611018565b60405180910390f35b6102c860048036038101906102c3919061116b565b610576565b6040516102d59190611042565b60405180910390f35b6102f860048036038101906102f39190611114565b6105fd565b005b606060038054610309906111da565b80601f0160208091040260200160405190810160405280929190818152602001828054610335906111da565b80156103825780601f1061035757610100808354040283529160200191610382565b820191906000526020600020905b81548152906001019060200180831161036557829003601f168201915b5050505050905090565b600080610397610683565b90506103a481858561068b565b600191505092915050565b6000600254905090565b6000806103c4610683565b90506103d185828561069d565b6103dc858585610731565b60019150509392505050565b60006012905090565b6103f9610825565b61040382826108ac565b5050565b610418610412610683565b8261092e565b50565b60008060008373ffffffffffffffffffffffffffffffffffffffff1673ffffffffffffffffffffffffffffffffffffffff168152602001908152602001600020549050919050565b61046b610825565b61047560006109b0565b565b61048982610483610683565b8361069d565b610493828261092e565b5050565b6000600560009054906101000a900473ffffffffffffffffffffffffffffffffffffffff16905090565b6060600480546104d0906111da565b80601f01602080910402602001604051908101604052809291908181526020018280546104fc906111da565b80156105495780601f1061051e57610100808354040283529160200191610549565b820191906000526020600020905b81548152906001019060200180831161052c57829003601f168201915b5050505050905090565b60008061055e610683565b905061056b818585610731565b600191505092915050565b6000600160008473ffffffffffffffffffffffffffffffffffffffff1673ffffffffffffffffffffffffffffffffffffffff16815260200190815260200160002060008373ffffffffffffffffffffffffffffffffffffffff1673ffffffffffffffffffffffffffffffffffffffff16815260200190815260200160002054905092915050565b610605610825565b600073ffffffffffffffffffffffffffffffffffffffff168173ffffffffffffffffffffffffffffffffffffffff16036106775760006040517f1e4fbdf700000000000000000000000000000000000000000000000000000000815260040161066e9190611150565b60405180910390fd5b610680816109b0565b50565b600033905090565b6106988383836001610a76565b505050565b60006106a98484610576565b90507fffffffffffffffffffffffffffffffffffffffffffffffffffffffffffffffff811461072b578181101561071b578281836040517ffb8f41b20000000000000000000000000000000000000000000000000000000081526004016107129392919061120b565b60405180910390fd5b61072a84848484036000610a76565b5b50505050565b600073ffffffffffffffffffffffffffffffffffffffff168373ffffffffffffffffffffffffffffffffffffffff16036107a35760006040517f96c6fd1e00000000000000000000000000000000000000000000000000000000815260040161079a9190611150565b60405180910390fd5b600073ffffffffffffffffffffffffffffffffffffffff168273ffffffffffffffffffffffffffffffffffffffff16036108155760006040517fec442f0500000000000000000000000000000000000000000000000000000000815260040161080c9190611150565b60405180910390fd5b610820838383610c4d565b505050565b61082d610683565b73ffffffffffffffffffffffffffffffffffffffff1661084b610497565b73ffffffffffffffffffffffffffffffffffffffff16146108aa5761086e610683565b6040517f118cdaa70000000000000000000000000000000000000000000000000000000081526004016108a19190611150565b60405180910390fd5b565b600073ffffffffffffffffffffffffffffffffffffffff168273ffffffffffffffffffffffffffffffffffffffff160361091e5760006040517fec442f050000000000000000000000000000000000000000000000000000000081526004016109159190611150565b60405180910390fd5b61092a60008383610c4d565b5050565b600073ffffffffffffffffffffffffffffffffffffffff168273ffffffffffffffffffffffffffffffffffffffff16036109a05760006040517f96c6fd1e0000000000000000000000000000000000000000000000000000000081526004016109979190611150565b60405180910390fd5b6109ac82600083610c4d565b5050565b6000600560009054906101000a900473ffffffffffffffffffffffffffffffffffffffff16905081600560006101000a81548173ffffffffffffffffffffffffffffffffffffffff021916908373ffffffffffffffffffffffffffffffffffffffff1602179055508173ffffffffffffffffffffffffffffffffffffffff168173ffffffffffffffffffffffffffffffffffffffff167f8be0079c531659141344cd1fd0a4f28419497f9722a3daafe3b4186f6b6457e060405160405180910390a35050565b600073ffffffffffffffffffffffffffffffffffffffff168473ffffffffffffffffffffffffffffffffffffffff1603610ae85760006040517fe602df05000000000000000000000000000000000000000000000000000000008152600401610adf9190611150565b60405180910390fd5b600073ffffffffffffffffffffffffffffffffffffffff168373ffffffffffffffffffffffffffffffffffffffff1603610b5a5760006040517f94280d62000000000000000000000000000000000000000000000000000000008152600401610b519190611150565b60405180910390fd5b81600160008673ffffffffffffffffffffffffffffffffffffffff1673ffffffffffffffffffffffffffffffffffffffff16815260200190815260200160002060008573ffffffffffffffffffffffffffffffffffffffff1673ffffffffffffffffffffffffffffffffffffffff168152602001908152602001600020819055508015610c47578273ffffffffffffffffffffffffffffffffffffffff168473ffffffffffffffffffffffffffffffffffffffff167f8c5be1e5ebec7d5bd14f71427d1e84f3dd0314c0f7b2291e5b200ac8c7c3b92584604051610c3e9190611042565b60405180910390a35b50505050565b600073ffffffffffffffffffffffffffffffffffffffff168373ffffffffffffffffffffffffffffffffffffffff1603610c9f578060026000828254610c939190611271565b92505081905550610d72565b60008060008573ffffffffffffffffffffffffffffffffffffffff1673ffffffffffffffffffffffffffffffffffffffff16815260200190815260200160002054905081811015610d2b578381836040517fe450d38c000000000000000000000000000000000000000000000000000000008152600401610d229392919061120b565b60405180910390fd5b8181036000808673ffffffffffffffffffffffffffffffffffffffff1673ffffffffffffffffffffffffffffffffffffffff16815260200190815260200160002081905550505b600073ffffffffffffffffffffffffffffffffffffffff168273ffffffffffffffffffffffffffffffffffffffff1603610dbb5780600260008282540392505081905550610e08565b806000808473ffffffffffffffffffffffffffffffffffffffff1673ffffffffffffffffffffffffffffffffffffffff168152602001908152602001600020600082825401925050819055505b8173ffffffffffffffffffffffffffffffffffffffff168373ffffffffffffffffffffffffffffffffffffffff167fddf252ad1be2c89b69c2b068fc378daa952ba7f163c4a11628f55a4df523b3ef83604051610e659190611042565b60405180910390a3505050565b600081519050919050565b600082825260208201905092915050565b60005b83811015610eac578082015181840152602081019050610e91565b60008484015250505050565b6000601f19601f8301169050919050565b6000610ed482610e72565b610ede8185610e7d565b9350610eee818560208601610e8e565b610ef781610eb8565b840191505092915050565b60006020820190508181036000830152610f1c8184610ec9565b905092915050565b600080fd5b600073ffffffffffffffffffffffffffffffffffffffff82169050919050565b6000610f5482610f29565b9050919050565b610f6481610f49565b8114610f6f57600080fd5b50565b600081359050610f8181610f5b565b92915050565b6000819050919050565b610f9a81610f87565b8114610fa557600080fd5b50565b600081359050610fb781610f91565b92915050565b60008060408385031215610fd457610fd3610f24565b5b6000610fe285828601610f72565b9250506020610ff385828601610fa8565b9150509250929050565b60008115159050919050565b61101281610ffd565b82525050565b600060208201905061102d6000830184611009565b92915050565b61103c81610f87565b82525050565b60006020820190506110576000830184611033565b92915050565b60008060006060848603121561107657611075610f24565b5b600061108486828701610f72565b935050602061109586828701610f72565b92505060406110a686828701610fa8565b9150509250925092565b600060ff82169050919050565b6110c6816110b0565b82525050565b60006020820190506110e160008301846110bd565b92915050565b6000602082840312156110fd576110fc610f24565b5b600061110b84828501610fa8565b91505092915050565b60006020828403121561112a57611129610f24565b5b600061113884828501610f72565b91505092915050565b61114a81610f49565b82525050565b60006020820190506111656000830184611141565b92915050565b6000806040838503121561118257611181610f24565b5b600061119085828601610f72565b92505060206111a185828601610f72565b9150509250929050565b7f4e487b7100000000000000000000000000000000000000000000000000000000600052602260045260246000fd5b600060028204905060018216806111f257607f821691505b602082108103611205576112046111ab565b5b50919050565b60006060820190506112206000830186611141565b61122d6020830185611033565b61123a6040830184611033565b949350505050565b7f4e487b7100000000000000000000000000000000000000000000000000000000600052601160045260246000fd5b600061127c82610f87565b915061128783610f87565b925082820190508082111561129f5761129e611242565b5b9291505056fea26469706673582212205af9098bf729f29c67fb8cc4d502555893e903f6867a1ae6fbd3fb14e1152f5a64736f6c63430008140033a2646970667358221220ea2a31be21510306a224d7462567e52ef6577b2bd62d5d678375f496d84f82d064736f6c63430008140033",
  "linkReferences": {},
  "deployedLinkReferences": {}
}