{
  "_format": "hh-sol-artifact-1",
  "contractName": "StarRegistry",
  "sourceName": "contracts/starRegistry.sol",
  "abi": [
    {
      "inputs": [
        {
          "internalType": "address",
          "name": "initialOwner",
          "type": "address"
        }
      ],
      "stateMutability": "nonpayable",
      "type": "constructor"
    },
    {
      "inputs": [
        {
          "internalType": "address",
          "name": "owner",
          "type": "address"
        }
      ],
      "name": "OwnableInvalidOwner",
      "type": "error"
    },
    {
      "inputs": [
        {
          "internalType": "address",
          "name": "account",
          "type": "address"
        }
      ],
      "name": "OwnableUnauthorizedAccount",
      "type": "error"
    },
    {
      "anonymous": false,
      "inputs": [
        {
          "indexed": true,
          "internalType": "address",
          "name": "previousOwner",
          "type": "address"
        },
        {
          "indexed": true,
          "internalType": "address",
          "name": "newOwner",
          "type": "address"
        }
      ],
      "name": "OwnershipTransferred",
      "type": "event"
    },
    {
      "anonymous": false,
      "inputs": [
        {
          "indexed": false,
          "internalType": "address",
          "name": "registrar",
          "type": "address"
        }
      ],
      "name": "RegistrarAdded",
      "type": "event"
    },
    {
      "anonymous": false,
      "inputs": [
        {
          "indexed": false,
          "internalType": "address",
          "name": "registrar",
          "type": "address"
        }
      ],
      "name": "RegistrarRemoved",
      "type": "event"
    },
    {
      "anonymous": false,
      "inputs": [
        {
          "indexed": false,
          "internalType": "string",
          "name": "starName",
          "type": "string"
        },
        {
          "indexed": false,
          "internalType": "address",
          "name": "subjectAddress",
          "type": "address"
        }
      ],
      "name": "StarAdded",
      "type": "event"
    },
    {
      "anonymous": false,
      "inputs": [
        {
          "indexed": false,
          "internalType": "string",
          "name": "starName",
          "type": "string"
        },
        {
          "indexed": false,
          "internalType": "address",
          "name": "subjectAddress",
          "type": "address"
        }
      ],
      "name": "StarUpdated",
      "type": "event"
    },
    {
      "inputs": [
        {
          "internalType": "address",
          "name": "_registrar",
          "type": "address"
        }
      ],
      "name": "addRegistrar",
      "outputs": [],
      "stateMutability": "nonpayable",
      "type": "function"
    },
    {
      "inputs": [
        {
          "internalType": "string",
          "name": "_starName",
          "type": "string"
        },
        {
          "internalType": "address",
          "name": "_subjectAddress",
          "type": "address"
        }
      ],
      "name": "addStar",
      "outputs": [],
      "stateMutability": "nonpayable",
      "type": "function"
    },
    {
      "inputs": [
        {
          "internalType": "string[]",
          "name": "_starNames",
          "type": "string[]"
        },
        {
          "internalType": "address[]",
          "name": "_subjectAddresses",
          "type": "address[]"
        }
      ],
      "name": "addStars",
      "outputs": [],
      "stateMutability": "nonpayable",
      "type": "function"
    },
    {
      "inputs": [
        {
          "internalType": "address",
          "name": "_subjectAddress",
          "type": "address"
        }
      ],
      "name": "getStarOfSubjectAddress",
      "outputs": [
        {
          "internalType": "string",
          "name": "",
          "type": "string"
        }
      ],
      "stateMutability": "view",
      "type": "function"
    },
    {
      "inputs": [
        {
          "internalType": "string",
          "name": "_starName",
          "type": "string"
        }
      ],
      "name": "getSubjectAddressOfStar",
      "outputs": [
        {
          "internalType": "address",
          "name": "",
          "type": "address"
        }
      ],
      "stateMutability": "view",
      "type": "function"
    },
    {
      "inputs": [],
      "name": "owner",
      "outputs": [
        {
          "internalType": "address",
          "name": "",
          "type": "address"
        }
      ],
      "stateMutability": "view",
      "type": "function"
    },
    {
      "inputs": [
        {
          "internalType": "address",
          "name": "",
          "type": "address"
        }
      ],
      "name": "registrars",
      "outputs": [
        {
          "internalType": "bool",
          "name": "",
          "type": "bool"
        }
      ],
      "stateMutability": "view",
      "type": "function"
    },
    {
      "inputs": [
        {
          "internalType": "address",
          "name": "_registrar",
          "type": "address"
        }
      ],
      "name": "removeRegistrar",
      "outputs": [],
      "stateMutability": "nonpayable",
      "type": "function"
    },
    {
      "inputs": [],
      "name": "renounceOwnership",
      "outputs": [],
      "stateMutability": "nonpayable",
      "type": "function"
    },
    {
      "inputs": [
        {
          "internalType": "string",
          "name": "",
          "type": "string"
        }
      ],
      "name": "starToSubjectAddress",
      "outputs": [
        {
          "internalType": "address",
          "name": "",
          "type": "address"
        }
      ],
      "stateMutability": "view",
      "type": "function"
    },
    {
      "inputs": [
        {
          "internalType": "address",
          "name": "",
          "type": "address"
        }
      ],
      "name": "subjectAddressToStar",
      "outputs": [
        {
          "internalType": "string",
          "name": "",
          "type": "string"
        }
      ],
      "stateMutability": "view",
      "type": "function"
    },
    {
      "inputs": [
        {
          "internalType": "address",
          "name": "newOwner",
          "type": "address"
        }
      ],
      "name": "transferOwnership",
      "outputs": [],
      "stateMutability": "nonpayable",
      "type": "function"
    },
    {
      "inputs": [
        {
          "internalType": "string",
          "name": "_oldStarName",
          "type": "string"
        },
        {
          "internalType": "string",
          "name": "_newStarName",
          "type": "string"
        },
        {
          "internalType": "address",
          "name": "_newSubjectAddress",
          "type": "address"
        }
      ],
      "name": "updateStar",
      "outputs": [],
      "stateMutability": "nonpayable",
      "type": "function"
    },
    {
      "inputs": [
        {
          "internalType": "string",
          "name": "_starName",
          "type": "string"
        },
        {
          "internalType": "address",
          "name": "_newSubjectAddress",
          "type": "address"
        }
      ],
      "name": "updateStar",
      "outputs": [],
      "stateMutability": "nonpayable",
      "type": "function"
    }
  ],
  "bytecode": "0x60806040523480156200001157600080fd5b5060405162002042380380620020428339818101604052810190620000379190620001f4565b80600073ffffffffffffffffffffffffffffffffffffffff168173ffffffffffffffffffffffffffffffffffffffff1603620000ad5760006040517f1e4fbdf7000000000000000000000000000000000000000000000000000000008152600401620000a4919062000237565b60405180910390fd5b620000be81620000c660201b60201c565b505062000254565b60008060009054906101000a900473ffffffffffffffffffffffffffffffffffffffff169050816000806101000a81548173ffffffffffffffffffffffffffffffffffffffff021916908373ffffffffffffffffffffffffffffffffffffffff1602179055508173ffffffffffffffffffffffffffffffffffffffff168173ffffffffffffffffffffffffffffffffffffffff167f8be0079c531659141344cd1fd0a4f28419497f9722a3daafe3b4186f6b6457e060405160405180910390a35050565b600080fd5b600073ffffffffffffffffffffffffffffffffffffffff82169050919050565b6000620001bc826200018f565b9050919050565b620001ce81620001af565b8114620001da57600080fd5b50565b600081519050620001ee81620001c3565b92915050565b6000602082840312156200020d576200020c6200018a565b5b60006200021d84828501620001dd565b91505092915050565b6200023181620001af565b82525050565b60006020820190506200024e600083018462000226565b92915050565b611dde80620002646000396000f3fe608060405234801561001057600080fd5b50600436106100ea5760003560e01c806389aeca761161008c578063af92a69311610066578063af92a69314610247578063b12350e614610263578063ba904eed14610293578063f2fde38b146102af576100ea565b806389aeca76146101c95780638da5cb5b146101f957806395f0edb314610217576100ea565b80636802f0d4116100c85780636802f0d414610157578063715018a61461017357806376d4e6741461017d578063881980db146101ad576100ea565b806305f317ed146100ef5780633a8ab6931461010b57806359f1a79214610127575b600080fd5b610109600480360381019061010491906114a5565b6102cb565b005b6101256004803603810190610120919061151d565b61043a565b005b610141600480360381019061013c91906115a8565b610689565b60405161014e9190611600565b60405180910390f35b610171600480360381019061016c919061161b565b6106d2565b005b61017b6109bd565b005b61019760048036038101906101929190611677565b6109d1565b6040516101a49190611723565b60405180910390f35b6101c760048036038101906101c2919061161b565b610aa2565b005b6101e360048036038101906101de9190611677565b610cb2565b6040516101f09190611760565b60405180910390f35b610201610cd2565b60405161020e9190611600565b60405180910390f35b610231600480360381019061022c9190611677565b610cfb565b60405161023e9190611723565b60405180910390f35b610261600480360381019061025c9190611677565b610d9b565b005b61027d600480360381019061027891906115a8565b610e35565b60405161028a9190611600565b60405180910390f35b6102ad60048036038101906102a89190611677565b610e7d565b005b6102c960048036038101906102c49190611677565b610f0e565b005b6102d3610cd2565b73ffffffffffffffffffffffffffffffffffffffff163373ffffffffffffffffffffffffffffffffffffffff1614806103555750600360003373ffffffffffffffffffffffffffffffffffffffff1673ffffffffffffffffffffffffffffffffffffffff16815260200190815260200160002060009054906101000a900460ff165b610394576040517f08c379a000000000000000000000000000000000000000000000000000000000815260040161038b906117c7565b60405180910390fd5b80518251146103d8576040517f08c379a00000000000000000000000000000000000000000000000000000000081526004016103cf90611833565b60405180910390fd5b60005b8251811015610435576104228382815181106103fa576103f9611853565b5b602002602001015183838151811061041557610414611853565b5b60200260200101516106d2565b808061042d906118bb565b9150506103db565b505050565b610442610cd2565b73ffffffffffffffffffffffffffffffffffffffff163373ffffffffffffffffffffffffffffffffffffffff1614806104c45750600360003373ffffffffffffffffffffffffffffffffffffffff1673ffffffffffffffffffffffffffffffffffffffff16815260200190815260200160002060009054906101000a900460ff165b610503576040517f08c379a00000000000000000000000000000000000000000000000000000000081526004016104fa906117c7565b60405180910390fd5b600073ffffffffffffffffffffffffffffffffffffffff1660018460405161052b919061193f565b908152602001604051809103902060009054906101000a900473ffffffffffffffffffffffffffffffffffffffff1673ffffffffffffffffffffffffffffffffffffffff16036105b0576040517f08c379a00000000000000000000000000000000000000000000000000000000081526004016105a7906119a2565b60405180910390fd5b600260006001856040516105c4919061193f565b908152602001604051809103902060009054906101000a900473ffffffffffffffffffffffffffffffffffffffff1673ffffffffffffffffffffffffffffffffffffffff1673ffffffffffffffffffffffffffffffffffffffff168152602001908152602001600020600061063991906110e7565b600183604051610649919061193f565b908152602001604051809103902060006101000a81549073ffffffffffffffffffffffffffffffffffffffff021916905561068482826106d2565b505050565b6001818051602081018201805184825260208301602085012081835280955050505050506000915054906101000a900473ffffffffffffffffffffffffffffffffffffffff1681565b6106da610cd2565b73ffffffffffffffffffffffffffffffffffffffff163373ffffffffffffffffffffffffffffffffffffffff16148061075c5750600360003373ffffffffffffffffffffffffffffffffffffffff1673ffffffffffffffffffffffffffffffffffffffff16815260200190815260200160002060009054906101000a900460ff165b61079b576040517f08c379a0000000000000000000000000000000000000000000000000000000008152600401610792906117c7565b60405180910390fd5b600073ffffffffffffffffffffffffffffffffffffffff166001836040516107c3919061193f565b908152602001604051809103902060009054906101000a900473ffffffffffffffffffffffffffffffffffffffff1673ffffffffffffffffffffffffffffffffffffffff1614610848576040517f08c379a000000000000000000000000000000000000000000000000000000000815260040161083f90611a0e565b60405180910390fd5b6000600260008373ffffffffffffffffffffffffffffffffffffffff1673ffffffffffffffffffffffffffffffffffffffff168152602001908152602001600020805461089490611a5d565b9050146108d6576040517f08c379a00000000000000000000000000000000000000000000000000000000081526004016108cd90611ada565b60405180910390fd5b806001836040516108e7919061193f565b908152602001604051809103902060006101000a81548173ffffffffffffffffffffffffffffffffffffffff021916908373ffffffffffffffffffffffffffffffffffffffff16021790555081600260008373ffffffffffffffffffffffffffffffffffffffff1673ffffffffffffffffffffffffffffffffffffffff168152602001908152602001600020908161097f9190611ca6565b507f9760d7682891912894e37a1fa6c01916f808212c1bc13fbe67103b658d3b6c0182826040516109b1929190611d78565b60405180910390a15050565b6109c5610f94565b6109cf600061101b565b565b6060600260008373ffffffffffffffffffffffffffffffffffffffff1673ffffffffffffffffffffffffffffffffffffffff1681526020019081526020016000208054610a1d90611a5d565b80601f0160208091040260200160405190810160405280929190818152602001828054610a4990611a5d565b8015610a965780601f10610a6b57610100808354040283529160200191610a96565b820191906000526020600020905b815481529060010190602001808311610a7957829003601f168201915b50505050509050919050565b610aaa610cd2565b73ffffffffffffffffffffffffffffffffffffffff163373ffffffffffffffffffffffffffffffffffffffff161480610b2c5750600360003373ffffffffffffffffffffffffffffffffffffffff1673ffffffffffffffffffffffffffffffffffffffff16815260200190815260200160002060009054906101000a900460ff165b610b6b576040517f08c379a0000000000000000000000000000000000000000000000000000000008152600401610b62906117c7565b60405180910390fd5b600073ffffffffffffffffffffffffffffffffffffffff16600183604051610b93919061193f565b908152602001604051809103902060009054906101000a900473ffffffffffffffffffffffffffffffffffffffff1673ffffffffffffffffffffffffffffffffffffffff1603610c18576040517f08c379a0000000000000000000000000000000000000000000000000000000008152600401610c0f906119a2565b60405180910390fd5b80600183604051610c29919061193f565b908152602001604051809103902060006101000a81548173ffffffffffffffffffffffffffffffffffffffff021916908373ffffffffffffffffffffffffffffffffffffffff1602179055507f3147d105fa3b79602a53cdfdc44a3dcc401154cd08d63e734e9ee4b656b685d48282604051610ca6929190611d78565b60405180910390a15050565b60036020528060005260406000206000915054906101000a900460ff1681565b60008060009054906101000a900473ffffffffffffffffffffffffffffffffffffffff16905090565b60026020528060005260406000206000915090508054610d1a90611a5d565b80601f0160208091040260200160405190810160405280929190818152602001828054610d4690611a5d565b8015610d935780601f10610d6857610100808354040283529160200191610d93565b820191906000526020600020905b815481529060010190602001808311610d7657829003601f168201915b505050505081565b610da3610f94565b6001600360008373ffffffffffffffffffffffffffffffffffffffff1673ffffffffffffffffffffffffffffffffffffffff16815260200190815260200160002060006101000a81548160ff0219169083151502179055507f5c38ce8ff8864a9d2a5ff5aec72a88770e38d181dea59173fde1247cdaa1aea381604051610e2a9190611600565b60405180910390a150565b6000600182604051610e47919061193f565b908152602001604051809103902060009054906101000a900473ffffffffffffffffffffffffffffffffffffffff169050919050565b610e85610f94565b600360008273ffffffffffffffffffffffffffffffffffffffff1673ffffffffffffffffffffffffffffffffffffffff16815260200190815260200160002060006101000a81549060ff02191690557f81cb97a294b3ff5f91ef4048b3173c7f8f6943d9750add2071199061165e5f5781604051610f039190611600565b60405180910390a150565b610f16610f94565b600073ffffffffffffffffffffffffffffffffffffffff168173ffffffffffffffffffffffffffffffffffffffff1603610f885760006040517f1e4fbdf7000000000000000000000000000000000000000000000000000000008152600401610f7f9190611600565b60405180910390fd5b610f918161101b565b50565b610f9c6110df565b73ffffffffffffffffffffffffffffffffffffffff16610fba610cd2565b73ffffffffffffffffffffffffffffffffffffffff161461101957610fdd6110df565b6040517f118cdaa70000000000000000000000000000000000000000000000000000000081526004016110109190611600565b60405180910390fd5b565b60008060009054906101000a900473ffffffffffffffffffffffffffffffffffffffff169050816000806101000a81548173ffffffffffffffffffffffffffffffffffffffff021916908373ffffffffffffffffffffffffffffffffffffffff1602179055508173ffffffffffffffffffffffffffffffffffffffff168173ffffffffffffffffffffffffffffffffffffffff167f8be0079c531659141344cd1fd0a4f28419497f9722a3daafe3b4186f6b6457e060405160405180910390a35050565b600033905090565b5080546110f390611a5d565b6000825580601f106111055750611124565b601f0160209004906000526020600020908101906111239190611127565b5b50565b5b80821115611140576000816000905550600101611128565b5090565b6000604051905090565b600080fd5b600080fd5b600080fd5b6000601f19601f8301169050919050565b7f4e487b7100000000000000000000000000000000000000000000000000000000600052604160045260246000fd5b6111a68261115d565b810181811067ffffffffffffffff821117156111c5576111c461116e565b5b80604052505050565b60006111d8611144565b90506111e4828261119d565b919050565b600067ffffffffffffffff8211156112045761120361116e565b5b602082029050602081019050919050565b600080fd5b600080fd5b600067ffffffffffffffff82111561123a5761123961116e565b5b6112438261115d565b9050602081019050919050565b82818337600083830152505050565b600061127261126d8461121f565b6111ce565b90508281526020810184848401111561128e5761128d61121a565b5b611299848285611250565b509392505050565b600082601f8301126112b6576112b5611158565b5b81356112c684826020860161125f565b91505092915050565b60006112e26112dd846111e9565b6111ce565b9050808382526020820190506020840283018581111561130557611304611215565b5b835b8181101561134c57803567ffffffffffffffff81111561132a57611329611158565b5b80860161133789826112a1565b85526020850194505050602081019050611307565b5050509392505050565b600082601f83011261136b5761136a611158565b5b813561137b8482602086016112cf565b91505092915050565b600067ffffffffffffffff82111561139f5761139e61116e565b5b602082029050602081019050919050565b600073ffffffffffffffffffffffffffffffffffffffff82169050919050565b60006113db826113b0565b9050919050565b6113eb816113d0565b81146113f657600080fd5b50565b600081359050611408816113e2565b92915050565b600061142161141c84611384565b6111ce565b9050808382526020820190506020840283018581111561144457611443611215565b5b835b8181101561146d578061145988826113f9565b845260208401935050602081019050611446565b5050509392505050565b600082601f83011261148c5761148b611158565b5b813561149c84826020860161140e565b91505092915050565b600080604083850312156114bc576114bb61114e565b5b600083013567ffffffffffffffff8111156114da576114d9611153565b5b6114e685828601611356565b925050602083013567ffffffffffffffff81111561150757611506611153565b5b61151385828601611477565b9150509250929050565b6000806000606084860312156115365761153561114e565b5b600084013567ffffffffffffffff81111561155457611553611153565b5b611560868287016112a1565b935050602084013567ffffffffffffffff81111561158157611580611153565b5b61158d868287016112a1565b925050604061159e868287016113f9565b9150509250925092565b6000602082840312156115be576115bd61114e565b5b600082013567ffffffffffffffff8111156115dc576115db611153565b5b6115e8848285016112a1565b91505092915050565b6115fa816113d0565b82525050565b600060208201905061161560008301846115f1565b92915050565b600080604083850312156116325761163161114e565b5b600083013567ffffffffffffffff8111156116505761164f611153565b5b61165c858286016112a1565b925050602061166d858286016113f9565b9150509250929050565b60006020828403121561168d5761168c61114e565b5b600061169b848285016113f9565b91505092915050565b600081519050919050565b600082825260208201905092915050565b60005b838110156116de5780820151818401526020810190506116c3565b60008484015250505050565b60006116f5826116a4565b6116ff81856116af565b935061170f8185602086016116c0565b6117188161115d565b840191505092915050565b6000602082019050818103600083015261173d81846116ea565b905092915050565b60008115159050919050565b61175a81611745565b82525050565b60006020820190506117756000830184611751565b92915050565b7f596f7520617265206e6f74206120726567697374726172000000000000000000600082015250565b60006117b16017836116af565b91506117bc8261177b565b602082019050919050565b600060208201905081810360008301526117e0816117a4565b9050919050565b7f4172726179206c656e677468206d69736d617463680000000000000000000000600082015250565b600061181d6015836116af565b9150611828826117e7565b602082019050919050565b6000602082019050818103600083015261184c81611810565b9050919050565b7f4e487b7100000000000000000000000000000000000000000000000000000000600052603260045260246000fd5b7f4e487b7100000000000000000000000000000000000000000000000000000000600052601160045260246000fd5b6000819050919050565b60006118c6826118b1565b91507fffffffffffffffffffffffffffffffffffffffffffffffffffffffffffffffff82036118f8576118f7611882565b5b600182019050919050565b600081905092915050565b6000611919826116a4565b6119238185611903565b93506119338185602086016116c0565b80840191505092915050565b600061194b828461190e565b915081905092915050565b7f53746172206e6f7420666f756e64000000000000000000000000000000000000600082015250565b600061198c600e836116af565b915061199782611956565b602082019050919050565b600060208201905081810360008301526119bb8161197f565b9050919050565b7f5374617220616c72656164792072656769737465726564000000000000000000600082015250565b60006119f86017836116af565b9150611a03826119c2565b602082019050919050565b60006020820190508181036000830152611a27816119eb565b9050919050565b7f4e487b7100000000000000000000000000000000000000000000000000000000600052602260045260246000fd5b60006002820490506001821680611a7557607f821691505b602082108103611a8857611a87611a2e565b5b50919050565b7f4164647265737320616c72656164792072656769737465726564000000000000600082015250565b6000611ac4601a836116af565b9150611acf82611a8e565b602082019050919050565b60006020820190508181036000830152611af381611ab7565b9050919050565b60008190508160005260206000209050919050565b60006020601f8301049050919050565b600082821b905092915050565b600060088302611b5c7fffffffffffffffffffffffffffffffffffffffffffffffffffffffffffffffff82611b1f565b611b668683611b1f565b95508019841693508086168417925050509392505050565b6000819050919050565b6000611ba3611b9e611b99846118b1565b611b7e565b6118b1565b9050919050565b6000819050919050565b611bbd83611b88565b611bd1611bc982611baa565b848454611b2c565b825550505050565b600090565b611be6611bd9565b611bf1818484611bb4565b505050565b5b81811015611c1557611c0a600082611bde565b600181019050611bf7565b5050565b601f821115611c5a57611c2b81611afa565b611c3484611b0f565b81016020851015611c43578190505b611c57611c4f85611b0f565b830182611bf6565b50505b505050565b600082821c905092915050565b6000611c7d60001984600802611c5f565b1980831691505092915050565b6000611c968383611c6c565b9150826002028217905092915050565b611caf826116a4565b67ffffffffffffffff811115611cc857611cc761116e565b5b611cd28254611a5d565b611cdd828285611c19565b600060209050601f831160018114611d105760008415611cfe578287015190505b611d088582611c8a565b865550611d70565b601f198416611d1e86611afa565b60005b82811015611d4657848901518255600182019150602085019450602081019050611d21565b86831015611d635784890151611d5f601f891682611c6c565b8355505b6001600288020188555050505b505050505050565b60006040820190508181036000830152611d9281856116ea565b9050611da160208301846115f1565b939250505056fea26469706673582212204fd7b1b722bc32dc6123cee290de1015c43ef9cd11b7bc359bb7345a6259714964736f6c63430008140033",
  "linkReferences": {},
  "deployedLinkReferences": {}
}